:020000040800F2
:10000000A0FA0020F5390008451900084719000832
:100010004B1900084F190008531900080000000090
:100020000000000000000000000000005719000858
:1000300059190008000000005B1900085D1900084C
:100040000F3A00080F3A00080F3A00080F3A00086C
:100050000F3A00080F3A00080F3A00080F3A00085C
:100060000F3A00080F3A00080F3A00080F3A00084C
:100070000F3A00080F3A00080F3A00080F3A00083C
:100080000F3A00080F3A00080F3A00080F3A00082C
:100090000F3A00080F3A00080F3A00080F3A00081C
:1000A0000F3A00080F3A00080F3A00080F3A00080C
:1000B0000F3A00080F3A00080F3A00080F3A0008FC
:1000C0000F3A00080F3A00080F3A00080F3A0008EC
:1000D0000F3A00086B39000815350008EF360008A4
:1000E0000F3A00080F3A00080F3A00080F3A0008CC
:1000F0000F3A00080F3A00080F3A00080F3A0008BC
:100100000F3A00080F3A00080F3A00080F3A0008AB
:100110000F3A00080F3A00080F3A0008C5330008EC
:100120000F3A00080F3A00080F3A00080F3A00088B
:100130000F3A00080F3A00080F3A00080F3A00087B
:100140000F3A00080F3A00080F3A00080F3A00086B
:100150000F3A00080F3A00080F3A00080F3A00085B
:100160000F3A00080F3A00080F3A00080F3A00084B
:100170000F3A00080F3A00080F3A00080F3A00083B
:100180000F3A00080F3A000800F002F800F069F892
:100190000AA090E8000C82448344AAF10107DA45E2
:1001A00001D100F05EF8AFF2090EBAE80F0013F0CB
:1001B000010F18BFFB1A43F00103184734E505008F
:1001C00054E505000A444FF0000C10F8013B13F011
:1001D000070408BF10F8014B1D1108BF10F8015BA0
:1001E000641E05D010F8016B641E01F8016BF9D193
:1001F00013F0080F1EBF10F8014BAD1C0C1B09D1EA
:100200006D1E58BF01F801CBFAD505E014F8016B5B
:1002100001F8016B6D1EF9D59142D6D370470000ED
:100220000023002400250026103A28BF78C1FBD8FF
:10023000520728BF30C148BF0B60704766293BF0AA
:100240009482002070471FB53BF085FA3AF07CF8A5
:100250000400002000213AF0CDFDE0601FBD10B584
:1002600010BD3AF075F91146FFF7EDFF00F083FE7F
:100270003AF093F903B4FFF7F2FF03BC03F016FB67
:1002800008B5014601F47800000A01F47C4240EA16
:100290005210C1F3C40210430090BDF80020104674
:1002A00008BD1CB5002001460246D408BDF8003048
:1002B00064F304038C080093BDF8003064F34A1320
:1002C000C4080093BDF8003064F3CF230093BDF859
:1002D000004023460193BDF8041008461CBD70B5CC
:1002E00005460C46E1B2002228460FF043F870BDE7
:1002F00070B505460C46E1B2002228460FF03AF8E8
:1003000070BD70B50546284605F0E8FD064628464E
:1003100005F0EAFD0446022C16D10020FE490860D3
:10032000FE48006828B9012003F0A3F90120FB4929
:1003300008605322C12130460AF077FA552211464F
:1003400030460BF044F817E0082C15D10020F34993
:100350000860F148006828B9002003F08AF90120FC
:10036000ED4908605A22C82130460AF05EFA46225A
:10037000114630460BF02BF870BD70B50546284687
:1003800005F0ACFD0646284605F0AEFD0446022CFD
:1003900016D10020E2490860E248006828B904202C
:1003A00003F067F90120DF490860AD22C121304622
:1003B0000AF03BFA5522114630460BF008F817E0D8
:1003C000082C15D10020D7490860D548006828B905
:1003D000002003F04EF90220CF490860B422C82162
:1003E00030460AF022FA4622114630460AF0EFFF64
:1003F00070BD70B50546284605F070FD06462846D6
:1004000005F072FD0446022C16D10020C649086092
:10041000C648006828B9032003F02BF90120C3491E
:100420000860AD22672130460AF0FFF955221146D7
:1004300030460AF0CCFF17E0082C15D10020BB494C
:100440000860B948006828B9002003F012F90220BA
:10045000B5490860B4226E2130460AF0E6F946221A
:10046000114630460AF0B3FF70BD70B50546284608
:1004700005F034FD0646284605F036FD0446022CFC
:1004800017D10020AA490860AA48006828B90220AC
:1004900003F0EFF80120A7490860AD2240F21B11DC
:1004A00030460AF0C2F95522114630460AF08FFF55
:1004B00018E0082C16D100209E4908609C4800686E
:1004C00028B9002003F0D5F8022099490860B42229
:1004D0004FF4917130460AF0A8F946221146304691
:1004E0000AF075FF70BD70B50446204605F0F6FCB5
:1004F0000546204605F0F8FC072825D18E480068FF
:100500000FF0D6F88D4800680FF0D2F88C480068DC
:100510000FF0CEF88B4800680FF0CAF88A480068E0
:100520000FF0C6F8894800680FF0C2F888480068E4
:100530000FF0BEF8874800680FF0BAF800221146A5
:10054000854800680EF0D6FC70BDF8B5044620461C
:1005500005F0C4FC0646204605F0C6FC07287DD100
:100560007E4800680FF0A4F87D4800680FF0A0F8FE
:100570007C4800680FF09CF87B4800680FF098F802
:100580007A4800680FF094F8794800680FF090F806
:10059000784800680FF08CF8774800680FF088F80A
:1005A000764800680FF084F8754800680FF080F80E
:1005B000744800680FF07CF8734800680FF078F812
:1005C000724800680FF074F8714800680FF070F816
:1005D000704800680FF06CF803206F49086001F064
:1005E0008FF9054608F085FA534908600022114644
:1005F000514800680AF019F94FF4A0724FF4F071F5
:100600004D4800680AF0E3FE6448FFF739FE002217
:1006100001460090484800680EF063FB00229621D6
:10062000454800680EF07EFB01F06AF9054608F0C7
:1006300060FA494908605A22C821474800680AF010
:10064000F4F846221146444800680AF0C0FE49F218
:10065000B650FFF715FE0022014600E0BCE1009015
:100660003D4800680EF03DFB0022FF213A4800683B
:100670000EF058FB00231A4649493748006805F038
:1006800065FC01F03DF9054608F033FA454908607C
:10069000B422C821434800680AF0C7F84622114630
:1006A000404800680AF093FE49F2B650FFF7E8FDB3
:1006B0000022014600903B4800680EF012FB002229
:1006C000FF21384800680EF02DFB00231A463649FA
:1006D0003448006805F03AFC01F012F9054608F0CC
:1006E00008FA32490860B4226E21304800680AF0E6
:1006F0009CF8462211462D4800680AF068FE49F22F
:10070000B650FFF7BDFD0022014600902748006863
:100710000EF0E7FA00224BE0E0000020DC000020B1
:10072000E8000020E4000020F0000020EC000020A1
:10073000F8000020F400002098000020880000202D
:1007400094000020A00000209C00002084000020D5
:10075000D8000020D400002070000020600000209D
:100760004C000020500000205400002058000020C1
:100770003C000020400000204400002048000020F1
:100780003800002064000020C4000020C8000020C1
:10079000CC000020D00000203400002080808000A9
:1007A00003030008740000207B0300087800002089
:1007B000FF21FC4800680EF0B5FA00231A46FA49FA
:1007C000F848006805F0C2FB01F09AF8054608F009
:1007D00090F9F6490860B4224FF49171F34800682B
:1007E0000AF023F846221146F04800680AF0EFFDAF
:1007F00049F2B650FFF744FD002201460090EB4855
:1008000000680EF06EFA0022FF21E84800680EF042
:1008100089FA00231A46E649E448006805F096FB89
:1008200001F06EF8054633F093F8E2490860E2A162
:10083000E048006833F00AFD0D220A21DD48006817
:1008400009F0F3FF01F05CF8054633F081F8DE496A
:100850000860D9A1DC48006833F0F8FC2D220A2199
:10086000D948006809F0E1FF01F04AF8054633F085
:100870006FF8D6490860D0A1D448006833F0E6FC90
:1008800049220A21D148006809F0CFFF01F038F869
:10089000054633F05DF8CE490860C7A1CC48006832
:1008A00033F0D4FC67220A21C948006809F0BDFF73
:1008B00001F026F8054633F04BF8C6490860BEA1A2
:1008C000C448006833F0C2FC85220A21C148006890
:1008D00009F0ABFFC048006801287DD10020FFF778
:1008E000CFFC002201460090BC4800680EF0D5FA0B
:1008F00000220221B94800680EF0FCFA01F000F86D
:10090000054634F041FBB64908600222B549B448B7
:10091000006834F047FB00F0F3FF054633F018F8A9
:10092000B1490860B1A1B048006833F08FFCB1480C
:100930002BF0FEF8B049AF482BF0A9FE0022AD49DC
:10094000A94800680DF0ADF92D224FF48271A64838
:10095000006809F06AFF00F0D3FF054632F0F8FFA7
:10096000A6490860A649A548006833F06FFC00223C
:10097000A049A24800680DF094F950224FF48C7100
:100980009E48006809F051FFC8219C4800680AF0A1
:1009900005FD00F0B5FF054634F0F6FA9949086008
:1009A000022299499748006834F0FCFA00F0A8FF49
:1009B000054632F0CDFF9549086095A1934800683F
:1009C00033F044FCBE221E219048006809F02DFF40
:1009D00000F096FF054600E039E008F08AF89149FA
:1009E0000860002211468F48006809F01EFF282287
:1009F00011468C4800680AF0EAFC4FF47F00FFF7CC
:100A00003FFC002201460090864800680EF069F91C
:100A10000022FF21834800680EF084F900231A4663
:100A200081498048006805F091FA00F069FF0546A9
:100A300032F08EFF7D4908607DA17C48006833F06C
:100A400005FC0A2211467948006809F0EEFEF8BD5F
:100A500070B50446204605F047FA0546204605F0E5
:100A60003DFA06461C2D0AD15B480068012803D1D7
:100A700000205949086002E001205749086070BD14
:100A80007CB50446204605F029FA064607F007F82B
:100A9000054601A907F0ADF8204605F025FA07281C
:100AA0007ED1644800680EF003FE00F029FF054681
:100AB00031F067FF6049086060495F48006831F0C5
:100AC0006EFF00231A4609215B4800680AF0E1FF27
:100AD0006FF0270200215848006809F0A6FE0121A6
:100AE0005548006808F050F800F00AFF054631F05C
:100AF00048FF5349086053495148006831F04FFF9F
:100B000000231A4609214E4800680AF0C2FF6FF020
:100B1000270200214A48006809F087FE0121484861
:100B2000006807F0F4FF00F0EBFE054631F029FF06
:100B30004549086045494448006831F030FF0023CA
:100B40001A460921404800680AF0A3FF6FF0270207
:100B500000213D48006809F068FE01213A4800681C
:100B600007F0D5FF00F0CCFE054631F00AFF38490A
:100B7000086038493648006831F011FF00231A46F2
:100B80000921334800680AF084FF6FF02702002132
:100B90002F48006809F049FE01212D4800685BE0FC
:100BA000E8E1000078000020F30300087C0000204A
:100BB0006B040008B0000020646973636F6E6E659B
:100BC0006374656400000000B4000020B8000020D9
:100BD000BC000020C0000020800000207000002029
:100BE00084000020FC00002088000020E68EA7E59D
:100BF00088B600008C0000207CF7030894000020D9
:100C000080E10508D400002004010020D800002065
:100C100064796E616D696320706172616D65746580
:100C2000727300009C000020E7040008A000002070
:100C300065736300300000204C000020A407040806
:100C400050000020B00F040854000020C819040808
:100C500058000020D421040807F059FF00F050FE8E
:100C6000054632F075FEFE490860FE49FC48006802
:100C700033F0ECFA96223221F948006809F0D5FDEC
:100C80000022F949F64800680DF00BF80121F448FC
:100C9000006807F03CFF00F033FE054632F058FED6
:100CA000F2490860F249F148006833F0CFFA962221
:100CB0006421EE48006809F0B8FD0022EA49EB48DB
:100CC00000680CF0EEFF0121E848006807F01FFF04
:100CD00000F016FE054632F03BFEE6490860E6A14C
:100CE000E448006833F0B2FA96227821E1480068BF
:100CF00009F09BFD0022DC49DE4800680CF0D1FFC2
:100D00000121DC48006807F002FF00F0F9FD05460C
:100D100032F01EFEE5490860E549E448006833F01A
:100D200095FA96223C21E148006809F07EFD0022F8
:100D3000CD49DE4800680CF0B4FF0121DB480068B3
:100D400007F0E5FE0220DB490860DB4800680EF092
:100D5000AFFCDA4800680EF0ABFCD94800680EF032
:100D6000A7FC00F0CDFD054630F0BEF9D54908607E
:100D7000DC22AA21D348006809F057FD1E22FA217F
:100D8000D04800680AF023FBCFA1CE48006830F0BD
:100D9000B9F90022B449CB4800680CF082FF002367
:100DA0001A46CE49C748006805F0D0F800F0A8FD03
:100DB000054607F09EFECA490860AF22CD21C8480B
:100DC000006809F032FD0A221146C54800680AF0A1
:100DD000FEFA002247F6FF71C14800680EF0B2FA31
:100DE000FFF75FFA002201460090BD4800680DF051
:100DF00078FF0022FF21BA4800680DF093FF00F051
:100E00007FFD054607F075FEB6490860AF22E12177
:100E1000B448006809F009FD0A221146B14800688B
:100E20000AF0D5FA002247F6FF71AE4800680EF0CE
:100E300089FAFFF736FA002201460090A9480068B7
:100E40000DF04FFF0022FF21A64800680DF06AFF59
:100E500000F056FD054607F04CFEA3490860AF229E
:100E6000F521A148006809F0E0FC0A2211469E48DD
:100E700000680AF0ACFA002247F6FF719A48006851
:100E80000EF060FAFFF70DFA002201460090964836
:100E900000680DF026FF0022FF21934800680DF046
:100EA00041FF00F02DFD054607F023FE8F49086045
:100EB000AF2240F209118D48006809F0B6FC0A2201
:100EC00011468A4800680AF082FA002247F6FF714C
:100ED000864800680EF036FAFFF7E3F90022014673
:100EE0000090824800680DF0FCFE0022FF217F4840
:100EF00000680DF017FF00207D49086000F000FD3C
:100F000005462EF06DFE7B49086020221146794887
:100F100000680AF05CFA4FF48C724FF4DC7175488B
:100F2000006809F082FC7348006831F02AFD7249BC
:100F3000086072497048006831F031FD2022114686
:100F40006D4800680AF043FA4FF48C724FF4DC717C
:100F50006948006809F069FC00231A4609216648BF
:100F600000680AF096FD0023072265496148006881
:100F700004F0ECFF7CBD2DED068BA2B002F0EEF983
:100F8000A82002F011FC02F021FB07F059FD04F04B
:100F9000CCFA04F024FB00F0B3FC044632F0D8FC99
:100FA0004749086057A14648006833F04FF92E487A
:100FB0002AF0BEFD5C492C482BF069FB00222A492F
:100FC0003F4800680CF06DFE00F09AFC044633F0D8
:100FD000DBFF39490860022254493748006833F082
:100FE000E1FF00F08DFC044631F0CBFC3349086092
:100FF0004F493248006831F0D2FC00231A460921DB
:101000002E4800680AF045FD1E20002305220090AE
:101010002A4801682A4800680AF04DFD12A827F006
:10102000F9FD2748016812A800F05BFC414912A8AD
:1010300000F059FC4FF47A7112A800F056FC4FF4FE
:101040007A7112A800F053FCFF22002112A800F0D0
:1010500051FC4FF47A701F9000BF4FF6FF716BE0A8
:10106000C400002090E005081C000020C8000020FB
:10107000E8E00508CC000020E4BDA0E79A84E5B0D4
:101080008FE8BDA6E68891E5969CE6ACA2EFBC8C05
:10109000E4BDA0E79A84E794B5E6B1A0E8AEB0E578
:1010A000BE97E585B3E3808200000000D0000020F9
:1010B0002CE1050834000020280000202C0000202E
:1010C0002400002038000020E590AFE794A8E5BC9C
:1010D00095E5AFBCE6A8A1E5BC8F0000510A000869
:1010E0003C00002040000020440000204800002078
:1010F0005C0100206400002060000020BC11040896
:101100004B050008E68C89E4B88BE4BBBBE6848F12
:10111000E994AEE8BF9BE585A5E68EA7E588B6E62F
:10112000A8A1E5BC8F0000007CF703080C0100209B
:1011300098FF0308DF02000812A800F0DFFB12A8E6
:1011400027F0ABFD02A827F065FDFE48016802A864
:1011500000F0C7FBFC4902A800F0C5FB4FF47A7110
:1011600002A800F0C2FB4FF47A7102A800F0BFFBA6
:10117000FF22002102A800F0BDFB002102A800F020
:10118000BDFB02A827F089FD00F0BAFB04462EF053
:1011900027FDEE4908604FF4A0724FF4F071EB4860
:1011A00000680AF014F900231A460921E74800688C
:1011B0000AF06FFC00221146E44800680EF0DAF8ED
:1011C00000230722E249E148006804F0BFFE00F076
:1011D00097FB044631F0D5FBDE490860DE49DD4867
:1011E000006831F0DCFB0A224FF4D771D94800685F
:1011F00009F01BFB00F084FB044631F0C2FBD74929
:101200000860D749D548006831F0C9FB0A224FF47D
:10121000D771D248006809F008FB0121CD48006869
:1012200007F075FC0121CD48006807F070FC57E31A
:1012300002F052FA01286FD1CA48C078012811D1B2
:10124000C848807BC749497B40EA012000EE100A6C
:10125000B8EEC00ADFEDC40A80EE201AC34880ED64
:10126000001A16E0BF48C078022812D1BD48807B22
:10127000BC49497B40EA012000EE100AB8EEC00AE2
:10128000DFEDB90A80EE201AB1EE410AB74880EDD1
:10129000000AB4480079012811D1B248007CB14954
:1012A000C97B40EA012000EE100AB8EEC00ADFED6B
:1012B000AE0A80EE201AAE4880ED001A16E0A9486A
:1012C0000079022812D1A748007CA649C97B40EAD0
:1012D000012000EE100AB8EEC00ADFEDA30A80EE8E
:1012E000201AB1EE410AA24880ED000A9D4800781C
:1012F000012812D19B48807A9A49497A40EA012014
:1013000000EE100AB8EEC00ADFED9A0A80EE201A4D
:10131000994880ED001A17E0DAE092480078022838
:1013200012D19048807A8F49497A40EA012000EE34
:10133000100AB8EEC00ADFED8F0A80EE201AB1EE77
:10134000410A8D4880ED000A86484078012811D175
:101350008448007B8349C97A40EA012000EE100AE4
:10136000B8EEC00ADFED830A80EE201A834880EDD4
:10137000001A16E07B484078022812D17948007B99
:101380007849C97A40EA012000EE100AB8EEC00A96
:10139000DFED780A80EE201AB1EE410A774880ED41
:1013A000000A704949796F4A927941EA022039F07E
:1013B000FAFE41EC1A0B9FED720B53EC102B39F037
:1013C0006DFD41EC190B9FED700B53EC102B39F0B8
:1013D00051FF41EC180B39F023FD6D4908600846B8
:1013E00090ED000ADFED6B0AB4EEE00AF1EE10FAC0
:1013F0000CDD90ED000ADFED670A30EE600ADFEDEC
:10140000650A30EE600A80ED000A0CE0604890ED5D
:10141000000ADFED600A30EEC00ADFED5E0A30EE52
:10142000C00A80ED000A5A4800683AF023F941ECFE
:10143000180B53EC182B58A15B4838F081FB5A4924
:101440005A48006832F002FF484800683AF012F942
:1014500041EC180B53EC182B55A1594838F070FB90
:1014600057495848006832F0F1FE414800683AF0A8
:1014700001F941EC180B53EC182B53A1564838F0E6
:101480005FFB55495548006832F0E0FE3A48006875
:101490003AF0F0F841EC180B53EC182B50A15448DB
:1014A00038F04EFB52495348006832F0CFFE3348C3
:1014B00000683AF0DFF841EC180B53EC182B4EA102
:1014C000514838F03DFB50495048006832F0BEFEAC
:1014D0002F4890ED000AB5EEC00AF1EE10FA0AD0DE
:1014E00001211C48006807F04FFB01211B480068E0
:1014F00007F00DFB09E001211648006807F007FB23
:1015000001211648006807F03FFB414800680228A7
:1015100016D140480068B0F57A7F12DD3D4800687A
:1015200040F6B83188420CDA4BF6FF70FEF7A8FEA1
:10153000002201460190384800680DF0D2FB6DE0B2
:10154000C8E1AFE02C000020F102000830000020CC
:10155000810A0008680000200C7905086C00002052
:10156000387C05081006002000401C4608000020BA
:101570000C0000200000C8421400002018000020C9
:10158000000000000000E040000000000080664015
:10159000100000200000344320416E676C653A2043
:1015A000252E3466000000007C030020B0000020DF
:1015B0002073706565645F783A20252E34660000DC
:1015C000FC030020B40000202073706565645F791F
:1015D0003A20252E346600007C040020B80000204C
:1015E00020706F73655F783A20252E326600000008
:1015F000FC040020BC00002020706F73655F793A06
:1016000020252E32660000007C050020C00000204E
:10161000340000205C0100203C000020FEF741FE69
:10162000002201460190BA4800680DF05AFBFEF70F
:1016300038FE002201460190B64800680DF051FBCB
:10164000FEF72FFE002201460190B34800680DF01E
:1016500048FB0121B148006807F096FA0121B04823
:10166000006807F054FA0121AE48006807F04FFA0D
:101670000121AD48006807F04AFA0121AB48006833
:1016800007F082FA0121AA48006807F040FA012118
:10169000A848006807F03BFA0121A748006807F056
:1016A00036FA0EE1A548006840F6B831884253DDAD
:1016B000A2480068490088424EDA4BF6FF70FEF7F8
:1016C000DFFD002201460190914800680DF009FB02
:1016D000FEF7E7FD002201460190994800680DF0F1
:1016E00000FBFEF7DEFD00220146019089480068FC
:1016F0000DF0F7FAFEF7D5FD00220146019086486D
:1017000000680DF0EEFA01218448006807F0FFF947
:1017100001218348006807F037FA012181480068F9
:1017200007F0F5F901218048006807F0F0F9012180
:101730007E48006807F0EBF901217D48006807F05A
:1017400023FA01217B48006807F0E1F901217A487A
:10175000006807F0DCF9B4E07848006841F2707185
:10176000884254DD7548006842F2283188424EDADA
:101770004BF6FF70FEF784FD00220146019065489C
:1017800000680DF0AEFAFEF78CFD002201460190D4
:101790005F4800680DF0A5FAFEF783FD00220146C0
:1017A0000190674800680DF09CFAFEF77AFD002270
:1017B00001460190584800680DF093FA01215748FE
:1017C000006807F0A4F901215548006807F09FF967
:1017D00001215448006807F0D7F9012152480068F8
:1017E00007F095F901215148006807F090F90121AF
:1017F0004F48006807F08BF901214E48006807F058
:10180000C3F901214C48006807F081F959E04B48C1
:10181000006842F22831884253DD4848006842F6A9
:10182000E06188424DDA4BF6FF70FEF729FD002299
:1018300001460190384800680DF053FAFEF731FD7B
:10184000002201460190324800680DF04AFAFEF786
:1018500028FD0022014601902E4800680DF041FA53
:10186000FEF71FFD002201460190354800680DF08B
:1018700038FA01212948006807F049F90121284870
:10188000006807F044F901212648006807F03FF995
:1018900001212548006807F077F9012123480068F5
:1018A00007F035F901212248006807F030F90121DD
:1018B0002048006807F02BF901211F48006807F055
:1018C00063F91E48006842F6E061884202DD0020AC
:1018D0001A49086000BF2AF0D3FF052001F0C6FFB7
:1018E000A6E40160704741607047816270474A42D8
:1018F000C2627047C161016242627047818770476E
:1019000010B526F0E4FB044603F086FE10BD00008F
:101910004000002044000020480000204C0000202F
:10192000500000205400002058000020C400002077
:10193000C8000020CC000020D00000205C01002066
:101940003C000020704700BFFEE700BFFEE700BF7D
:10195000FEE700BFFEE77047704770477047000022
:101960000CB50020019000907648006840F480306B
:101970007449086000BF7348006800F400300090AC
:101980000198401C0190009818B90198B0F5A04F3B
:10199000F1D16C48006800F4003010B101200090D3
:1019A00001E0002000900098012846D165484030B1
:1019B000006840F080506349403108606248006828
:1019C00040F44040604908605E48083000685D4966
:1019D000083108600846006840F400400860084686
:1019E000006840F4A05008605848091F0860081FAC
:1019F000006840F08070091F086000BF514800680F
:101A000000F000700028F9D040F2057050490860DD
:101A10004C480830006820F003004A49083108604B
:101A20000846006840F00200086000BF45480830E2
:101A3000006800F00C000828F8D10CBD10B545482E
:101A4000006840F47000434908603E48006840F078
:101A500001003C49086000203A49083108603948D3
:101A600000683D490840374908603C48091D086046
:101A7000081F006820F48020091F086000203149F9
:101A80000C310860FFF76CFF4FF00060314980397E
:101A9000086010BD70B5002000220223002402213E
:101AA000284D08352D6805F00C0020B1042806D01B
:101AB000082834D107E02A4D2A4E356033E02A4DFC
:101AC000284E35602FE01F4D2D1D2D68C5F3805425
:101AD0001C4D2D1D2D6805F03F0154B1224DB5FB65
:101AE000F1F5184E361D3668C6F3881605FB06F26A
:101AF00009E01B4DB5FBF1F5124E361D3668C6F3F5
:101B0000881605FB06F20F4D2D1D2D68C5F3014506
:101B10006D1C6B00B2FBF3F5124E356003E0104D07
:101B2000104E356000BF00BF064D08352D68C5F367
:101B300003150E4E705D0B4D2D68C540094E356086
:101B400070BD00000038024000700040085440079B
:101B5000003C024088ED00E0FFFFF6FE103000245C
:101B60000024F4001401002000127A001801002063
:101B70001CB501215F2002F0F1FA4FF48050009073
:101B800001208DF8040000208DF8060003208DF858
:101B9000050001208DF807006946BB4802F040F8B7
:101BA0004FF48051B84802F0B7F848F23200009084
:101BB00001208DF8040000208DF8060003208DF828
:101BC000050001208DF807006946B04802F028F8AA
:101BD00048F23201AD4802F09FF84FF48240009085
:101BE00000208DF8040003208DF8050001208DF8F9
:101BF00007006946A64802F013F84FF4A050009081
:101C000001208DF8040000208DF8060003208DF8D7
:101C1000050001208DF8070069469D4802F000F894
:101C20004FF4A0519A4802F077F81CBD70B50446F5
:101C30004FF48061964802F071F8002519E04FF4E6
:101C40008051914802F06AF804F0800020B1202110
:101C50008E4802F061F803E020218C4802F05EF823
:101C60004FF48051884802F057F86006040E681C53
:101C7000C5B2082DE3DB4FF48061854802F04CF8D3
:101C800070BD10B504462046FFF7D0FF10BD10B55B
:101C900004462012FFF7CAFFE0B2FFF7C7FF10BDEE
:101CA00010B504464FF40041784802F037F820465A
:101CB000FFF7BCFF4FF40041744802F02DF810BD4F
:101CC0002DE9F04107460C4615461E462A20FFF72F
:101CD000E7FF3846FFF7DBFF2846FFF7D8FF2B204A
:101CE000FFF7DEFF2046FFF7D2FF3046FFF7CFFFBA
:101CF0002C20FFF7D5FFBDE8F08110B5FFF738FFC6
:101D00001021624802F00AF8642001F0AFFD1021B2
:101D10005E4802F001F8642001F0A8FD02215B4852
:101D200001F0FAFF642001F0A1FD1120FFF7B8FFD8
:101D3000782001F09BFDF020FFF7B2FFC320FFF7F2
:101D4000A0FFF020FFF7ACFF9620FFF79AFF3620A8
:101D5000FFF7A6FF2820FFF794FF3A20FFF7A0FF28
:101D60000520FFF78EFFE820FFF79AFF4020FFF7DE
:101D700088FF8220FFF785FF0720FFF782FF1820EA
:101D8000FFF77FFF2720FFF77CFF0A20FFF779FF8F
:101D9000B620FFF776FF3320FFF773FFC520FFF76C
:101DA0007FFF2720FFF76DFFC220FFF779FFA720F5
:101DB000FFF767FFE020FFF773FFF020FFF761FFF9
:101DC0000120FFF75EFF0620FFF75BFF0F20FFF704
:101DD00058FF1220FFF755FF1D20FFF752FF362056
:101DE000FFF74FFF5420FFF74CFF4420FFF749FF58
:101DF0000C20FFF746FF1820FFF743FF1620FFF7E0
:101E000040FF1320FFF73DFF1520FFF73AFFE120C9
:101E1000FFF746FFF020FFF734FF0120FFF731FF07
:101E20000520FFF72EFF0A20FFF72BFF0B20FFF7FF
:101E300028FF0720FFF725FF3220FFF722FF44206D
:101E4000FFF71FFF4420FFF71CFF0C20FFF719FFCF
:101E50001820FFF716FF1720FFF713FF1320FFF7D7
:101E600010FF1620FFF70DFFF020FFF719FF3C20B1
:101E7000FFF707FFF020FFF713FF6920FFF701FFCF
:101E80002920FFF70DFF10BD00180240000C024092
:101E9000001002402DE9F04706460F4614461D4645
:101EA000DDF820A0681E83B2601E82B2394630463B
:101EB000FFF706FFB8460EE0B14606E05046FFF7D2
:101EC000E6FE09F101001FFA80F9A145F6DB08F1F1
:101ED00001001FFA80F8A845EEDBBDE8F0872DE988
:101EE000FC5F04460D4616461F46DDF83080002094
:101EF000019000908146301B401C1FFA80FB781B2C
:101F0000401C1FFA80FA3B46324629462046FFF71E
:101F1000D7FE00BF07E0B8F80000FFF7B8FE08F1F1
:101F2000020809F101090BFB0AF04845F3D8BDE8A6
:101F3000FC9F70B504460D4616462B4622462946A0
:101F40002046FFF7BDFE3046FFF7A1FE70BD2DE92C
:101F5000FF4F85B081468A4600200390834607984C
:101F6000A0EB09050898A0EB0A06CDF80890CDF87B
:101F700004A0002D01DD012705E00DB9002702E0D6
:101F80004FF0FF376D42002E02DD4FF0010806E0F2
:101F900016B94FF0000802E04FF0FF387642B54224
:101FA00001DD2C4600E03446002004901EE0019A3A
:101FB00091B2029A90B2129AFFF7BBFF039828449D
:101FC0000390B3440398A04205DD0398001B0390DF
:101FD000029838440290A34504DDABEB040B019852
:101FE000404401900498401C80B20490611C049805
:101FF0008842DCDB09B0BDE8F08F2DE9F8430546E7
:102000000E4617469846089C33463A4631462846BF
:102010000094FFF79CFF43462A4631462846009429
:10202000FFF795FF43463A46414628460094FFF79E
:102030008EFF43463A46314638460094FFF787FF05
:10204000BDE8F8832DE9F04706460F4690469946CD
:102050000025444641E07A1B91B2321B90B24A46B9
:10206000FFF767FF7A1B91B2321990B24A46FFF729
:1020700060FF3A1991B2721B90B24A46FFF759FFBE
:102080003A1B91B2721B90B24A46FFF752FF7A197F
:1020900091B2321990B24A46FFF74BFF3A1B91B208
:1020A000721990B24A46FFF744FF3A1991B2721979
:1020B00090B24A46FFF73DFF7A1991B2321B90B2B7
:1020C0004A46FFF736FF6D1C05FB05F004FB0401D3
:1020D00008FB08F0814200DD641EA542BBDDBDE8BF
:1020E000F0872DE9FE4F0646894692469B460D9C99
:1020F00000962046E11704EB5171C910614389B283
:10210000019105200290002565E005EB8510F94955
:1021100011F810009AF80010884259D105EB85108B
:10212000F44901EB400040789AF8011088424FD101
:1021300009EB0400401E83B23019401E82B24946AA
:102140003046FFF7BDFD00273FE04FF0000836E0C6
:102150000E9898B905EB8510E64901EB4000801C0C
:10216000C05D012101FA08F1084018B15846FFF797
:102170008EFD20E00C98FFF78AFD1CE005EB851032
:10218000DC4901EB4000801CC05D012101FA08F12F
:10219000084020B15A4649463046FFF7CAFE701C37
:1021A00086B20098301AA04205D1009E09F10100C4
:1021B0001FFA80F906E008F1010000F0FF08B8F10D
:1021C000080FC5DB00BF781CC7B201988742BCDB93
:1021D00000BF681C85B20298854296DBBDE8FE8F81
:1021E0002DE9FE4F0646894692469B460D9C009679
:1021F0002046E11704EB5171C910614389B2019186
:102200000520029000256DE005EB850000EB4510F0
:10221000B94911F810009AF8001088425FD105EB17
:10222000850000EB4510B44901EB400040789AF876
:102230000110884253D109EB0400401E83B23019CB
:10224000401E82B249463046FFF73AFD002743E080
:102250004FF000083AE00E98A8B905EB850000EBB6
:102260004510A54901EB4000801CC05D012101FA29
:1022700008F1084018B15846FFF709FD22E00C9814
:10228000FFF705FD1EE005EB850000EB45109A49C0
:1022900001EB4000801CC05D012101FA08F10840FB
:1022A00020B15A4649463046FFF743FE701C86B2BD
:1022B0000098301AA04205D1009E09F101001FFAD2
:1022C00080F906E008F1010000F0FF08B8F1080FFE
:1022D000C1DB00BF781CC7B201988742B8DB00BFE2
:1022E000681C85B2029885428EDBBDE8FE8F2DE921
:1022F000FE4F0646894692469B460D9C0096204618
:10230000E11704EB5171C910614389B201910520B5
:102310000290002565E005EB0510784911F81000E2
:102320009AF80010884259D105EB0510734901EB6A
:10233000400040789AF8011088424FD109EB040020
:10234000401E83B23019401E82B249463046FFF724
:10235000B7FC00273FE04FF0000836E00E9898B930
:1023600005EB0510654901EB4000801CC05D0121B3
:1023700001FA08F1084018B15846FFF788FC20E040
:102380000C98FFF784FC1CE005EB05105B4901EBA2
:102390004000801CC05D012101FA08F1084020B115
:1023A0005A4649463046FFF7C4FD701C86B2009875
:1023B000301AA04205D1009E09F101001FFA80F9F0
:1023C00006E008F1010000F0FF08B8F1080FC5DBD6
:1023D00000BF781CC7B201988742BCDB00BF681CF5
:1023E00085B20298854296DBBDE8FE8F2DE9FE4F4F
:1023F0008046894615469A46DDE90D470C9E2AE03F
:10240000102C09D153462A4649464046CDE901479A
:102410000096FFF76CFF19E0182C09D153462A46A5
:1024200049464046CDE901470096FFF7D9FE0DE049
:10243000202C09D153462A4649464046CDE901475A
:102440000096FFF74EFE01E0BDE8FE8FAD1C08EBE5
:1024500004001FFA80F828780028D1D100BFF3E7E4
:102460002DE9FF4F83B005468A461746119CAB46BF
:10247000204604EBD071C1F347063046F11706EB56
:102480005171C910614389B20191A7F12000C7B20F
:102490000AEB0400401E83B2A819401E82B25146C6
:1024A0002846FFF70DFC4FF0000954E0102C06D130
:1024B000134800EB071010F8090002900BE0202CE5
:1024C00006D1104800EB871010F80900029002E0D6
:1024D00007B0BDE8F08F4FF0000834E01298B8B9AB
:1024E000012000FA08F00299084068B10698FFF749
:1024F000CEFB24E0109C05089E9A0508F499050877
:10250000447C0508348205081098FFF7C0FB16E0EC
:10251000012000FA08F00299084020B151462846EF
:10252000069AFFF706FD681C85B2A5EB0B00B042CA
:1025300005D15D460AF101001FFA80FA06E008F1B4
:10254000010000F0FF08B8F1080FC7DB00BF09F178
:1025500001001FFA80F901988145A7DB00BFB7E7AA
:102560002DE9FE4F06460F4614469846DDE90D5A02
:10257000DDF8309010E0CDE9015ACDF800902278D6
:10258000434639463046FFF76BFF284605EBD071CE
:1025900006EB61018EB2641C20780028EBD1BDE807
:1025A000FE8F10B50246012000E050430B1EA1F142
:1025B0000104E1B2F9D110BD2DE9FF4F85B0074606
:1025C00091461D46DDE913A600200490304606EB37
:1025D000D071C1F3470B002434E0281B401EC1B268
:1025E0000A20FFF7DEFFB9FBF0F00A21B0FBF1F2A1
:1025F00001FB12080498A0B9681EA04211DDB8F1D1
:10260000000F0CD1002004FB0B71CDE900A6029055
:1026100088B22022129B0699FFF722FF10E00120CA
:102620000490002008F13001CAB204FB0B71CDE91F
:1026300000A6029088B2129B0699FFF711FF00BF17
:10264000601CC4B2AC42C8DB09B0BDE8F08F2DE914
:10265000FF4F2DED020B2DED028B83B00746B0EE40
:10266000408A1446DDE91486304606EBD071C1F38A
:10267000470A9FED3C0A28EE000ABCEEC00A10EEA5
:10268000100A1FFA80FB002530E0601B401EC1B21B
:102690000A20FFF786FFBBFBF0F00A21B0FBF1F246
:1026A00001FB1209A01EA84210D10020A11E01FBAF
:1026B0000A71CDE90086029088B22E220A9B089901
:1026C000FFF7CEFE681CC5B2601CC4B2002009F141
:1026D0003001CAB205FB0A71CDE90086029088B2CA
:1026E0000A9B0899FFF7BCFE681CC5B2A542CCDB6B
:1026F00003B0BDEC028B06B0BDE8F08F2DE9F05FB2
:102700000746884615461E46DDF82890002408EB4B
:102710000600401E83B27819401E82B241463846F8
:10272000FFF7CEFAA24619E04FF0000B10E019F8BF
:102730001400FFF7A6FA012101EB440119F801008A
:10274000FFF79FFA601C84B20BF101001FFA80FBB7
:10275000B345ECDB0AF101001FFA80FAAA45E3DB7E
:10276000BDE8F09F0000C84270B50446002500BFD8
:1027700017E004F0800018B10120FE49086002E073
:102780000020FC4908606006040E0020FA49086039
:10279000012001F023F80120F849C1F8B002681CBB
:1027A000C5B2082DE5DB70BD70B5064600250024D6
:1027B0000020F1490860F249C1F89402F14908602B
:1027C0003046FFF7D1FF062001F008F80020EB4962
:1027D000C1F8B002012001F001F80120E6490860CB
:1027E00000F0FCFF0020E549C1F8B00200BF15E091
:1027F0004FF6FF7000EA44040020DF490860012022
:1028000000F0ECFF0120DD49C1F8B002DD4890384E
:10281000006808B1601C84B2681CC5B2102DE7DBEB
:1028200024110120D7490860204670BD2DE9FE43E0
:1028300080460027002406E04046FFF7B5FF2DF84C
:102840001400601C84B2052CF6DB002416E0601C2A
:1028500085B20FE03DF814003DF81510884207DD01
:102860003DF814603DF815002DF814002DF81560A2
:10287000681C85B2052DEDDB601C84B2042CE6DB00
:102880000027012405E03DF81400384487B2601C9D
:1028900084B2042CF7DB032097FBF0F086B23046BD
:1028A000BDE8FE832DE9F04104460D46B6480078A8
:1028B000FFF7BCFF0646B5480078FFF7B7FF0746AD
:1028C00026802F800120BDE8F0817FB504460D46AB
:1028D00002A903A8FFF7E6FF064616B9002004B0D8
:1028E00070BD694601A8FFF7DDFF06460EB900205E
:1028F000F5E7BDF80400BDF80C10884206DCBDF811
:102900000C10BDF80400323081420CDBBDF80C0025
:10291000BDF80410884236DCBDF80410BDF80C0088
:10292000323081422FDABDF80000BDF8081088422D
:1029300006DCBDF80810BDF80000323081420CDB27
:10294000BDF80800BDF8001088421CDCBDF800107E
:10295000BDF808003230814215DABDF80C10BDF820
:102960000420881800EBD071C1F34F012180BDF81D
:102970000810BDF80020881800EBD071C1F34F019A
:1029800029800120ABE70020A9E7F8B504460D46F1
:10299000164604F10D018AB2193988B22B46294630
:1029A0000096FFF7D4FA05F10D0083B2193881B211
:1029B000224620460096FFF7CAFA6A1C91B2621CB2
:1029C00090B23246FFF7B5FA6A1C91B2621E90B21D
:1029D0003246FFF7AEFA6A1E91B2621C90B23246DE
:1029E000FFF7A7FA6A1E91B2621E90B23246FFF755
:1029F000A0FA3346062229462046FFF723FBF8BDFE
:102A000070B504460D461646324629462046FFF765
:102A100090FA611C88B232462946FFF78AFA681C90
:102A200081B232462046FFF784FA6A1C91B2621CDA
:102A300090B23246FFF77DFA70BD2DE9FF4F85B0A9
:102A400081468A460020039083460798A0EB09053B
:102A50000898A0EB0A06CDF80890CDF804A0002D48
:102A600001DD012705E00DB9002702E04FF0FF3737
:102A70006D42002E02DD4FF0010806E016B94FF05E
:102A8000000802E04FF0FF387642B54201DD2C46E7
:102A900000E03446002004901EE0019A91B2029AB0
:102AA00090B2129AFFF7ACFF039828440390B34406
:102AB0000398A04205DD0398001B03900298384458
:102AC0000290A34504DDABEB040B01984044019058
:102AD0000498401C80B20490611C04988842DCDB9E
:102AE00009B0BDE8F08F10B5044626487838006874
:102AF00000285ED12CB12649A1F10A00FFF7E5FEBE
:102B000035E02349A1F10A00FFF7DFFE78B3204842
:102B10001638B0F92C0000EE100AB8EEC00A1C48B6
:102B2000163890ED091A808900EE900AF8EE600AD6
:102B300001EE200ABCEEC00A10EE100A1449163944
:102B400088810846B0F92E0000EE100AB8EEC00ADF
:102B5000084690ED0A1AC08A00EE900AF8EE600A64
:102B600001EE200ABCEEC00A10EE100AC882084826
:102B700016380FE094824142B002434200004342C3
:102B800000804142B0024242580100205901002019
:102B90003E01002090F8200000F0800008BBC0201B
:102BA000FE4981F82000084681898182C18AC1835B
:102BB00017E0FA4890F8200000F0800040B1F74894
:102BC00090F8200020F08000F44981F8200008E00F
:102BD0000021F2488182C1834FF6FF70EF4988815E
:102BE000C882EE4890F8200000F0800010BD2DE96A
:102BF000F0432DED068B87B04FF0000800BF4FF675
:102C0000FF704FF4A0734FF4F0720021009008465B
:102C1000FFF740F9002010214FF6FF724FF4784380
:102C2000CDE900210290DEA228210520FFF798FCC3
:102C30004FF4784214210846FFF7A7FE0020D74939
:102C400081F820009FEDDE0A084680ED090A36E390
:102C5000D248416801208847D04890F8200000F011
:102C6000C00040287ED1CD4890F8200020F04000E0
:102C7000CA4981F820000846808903A921F8280064
:102C8000C648C08A01EB8801488008F1010000F0C5
:102C9000FF08B8F1010F09D0B8F1020F14D0B8F154
:102CA000030F20D0B8F1040F0DD12CE04FF6FF72C6
:102CB00014210846FFF769FE4FF4784214214FF4BF
:102CC000E670FFF762FEF8E24FF6FF7214214FF450
:102CD000E670FFF75AFE4FF478424FF496711420D5
:102CE000FFF753FEE9E24FF6FF724FF4967114209E
:102CF000FFF74BFE4FF478424FF496714FF4E670B5
:102D0000FFF743FED9E2BDF80C10BDF81020881A79
:102D1000002801DB014600E041420C46BDF80E20D0
:102D2000BDF81210501A002801DB014600E04142B4
:102D30000D4664436D43601938F04CFA41EC1A0BB0
:102D4000B0EE4A0AF0EE6A0A38F010F8B0EE409A97
:102D5000F0EE609A51EC190B38F0F8F986B2BDF834
:102D6000141000E0AAE2BDF81820881A002801DB40
:102D7000014600E041420C46BDF81620BDF81A108D
:102D8000501A002801DB014600E041420D46644331
:102D90006D43601938F01EFA41EC1A0BB0EE4A0A86
:102DA000F0EE6A0A37F0E2FFB0EE409AF0EE609A79
:102DB00051EC190B38F0CAF987B200EE106AF8EE40
:102DC000400A00EE107AB8EE400A80EE801A11EE4A
:102DD000109A484638F04EFC41EC180B9FED790BE9
:102DE00053EC102B51EC180B38F008FA0AD39FED76
:102DF000770B53EC102B51EC180B38F039FB01D347
:102E000006B187BB4FF000084FF6FF724FF4967182
:102E10004FF4E670FFF7B9FD4FF4784214210846ED
:102E2000FFF7B3FD002010214FF6FF724FF47843F7
:102E3000CDE90021029067A228210520FFF790FB31
:102E4000002010214FF6FF724FF47843CDE90021A6
:102E5000029068A23C210520FFF782FB4FF47A70B4
:102E600000F004FD2BE2FFE7BDF80C10BDF81420C4
:102E7000881A002801DB014600E041420C46BDF8FB
:102E80000E20BDF81610501A002801DB014600E0A4
:102E900041420D4664436D43601938F09BF941ECA3
:102EA0001A0BB0EE4A0AF0EE6A0A37F05FFFB0EE96
:102EB000409AF0EE609A51EC190B38F047F986B25F
:102EC000BDF81010BDF81820881A002801DB014653
:102ED00000E041420C46BDF81220BDF81A10501A0D
:102EE000002801DB014600E041420D4664436D438A
:102EF000601938F06FF941EC1A0BB0EE4A0AF0EEA7
:102F00006A0A37F033FFB0EE409AF0EE609A51EC67
:102F1000190B38F01BF987B200EE106AF8EE400A80
:102F200000EE107AB8EE400A80EE801A11EE109A88
:102F3000484638F09FFB41EC180B9FED220B53ECF9
:102F4000102B51EC180B38F059F908D39FED1F0BDB
:102F500053EC102B51EC180B38F08AFA6ED24FF06C
:102F600000084FF6FF724FF496714FF4E670FFF7CA
:102F70000CFD4FF4784214210846FFF706FD0020AF
:102F800010214FF6FF724FF47843CDE900210290F3
:102F900010A228210520FFF7E3FA3BE028010020DA
:102FA000506C656173652061646A7573746D656EDC
:102FB00074207468652073637265656E2E0000006E
:102FC00000000000666666666666EE3FCDCCCCCC3F
:102FD000CCCCF03F546F7563682041646A7573749C
:102FE0002046696C6564212020202020202020209C
:102FF00020000000506C656173652041646A757340
:103000007420416761696E2120202020202020202B
:1030100020000000002010214FF6FF724FF478438B
:10302000CDE900210290AFF234023C210520FFF7E8
:1030300097FA4FF47A7000F019FC40E1BDF81010D7
:10304000BDF81420881A002801DB014600E0414247
:103050000C46BDF81220BDF81610501A002801DBEE
:10306000014600E041420D4664436D43601938F06B
:10307000B1F841EC1A0BB0EE4A0AF0EE6A0A37F0EA
:1030800075FEB0EE409AF0EE609A51EC190B38F0F4
:103090005DF886B2BDF80C10BDF81820881A00281B
:1030A00001DB014600E041420C46BDF80E20BDF8B0
:1030B0001A10501A002801DB014600E041420D467B
:1030C00064436D43601938F085F841EC1A0BB0EE9B
:1030D0004A0AF0EE6A0A37F049FEB0EE409AF0EE86
:1030E000609A51EC190B38F031F887B200EE106A93
:1030F000F8EE400A00EE107AB8EE400A80EE801A30
:1031000011EE109A484638F0B5FA41EC180B1FED55
:10311000530B53EC102B51EC180B38F06FF808D30D
:103120001FED560B53EC102B51EC180B38F0A0F997
:1031300032D24FF000084FF6FF724FF496714FF401
:10314000E670FFF722FC4FF4784214210846FFF79F
:103150001CFC002010214FF6FF724FF47843CDE99C
:1031600000210290AFF2941228210520FFF7F8F910
:10317000002010214FF6FF724FF47843CDE9002173
:103180000290AFF290123C210520FFF7E9F94FF4CD
:103190007A7000F06BFB92E0BDF81000BDF80C10E7
:1031A000401A00EE100AB8EEC00ADFED4F0A80EEBA
:1031B000801A4E4880ED091ABDF81000BDF80C10B9
:1031C000084400EE100AF8EEC00A484890ED091ACB
:1031D0009FED470A01EE600AF0EE000A80EE201A29
:1031E000BDEEC10A10EE100A00B240498885BDF854
:1031F0001600BDF80E10401A00EE100AB8EEC00A14
:10320000DFED3C0A80EE801A384880ED0A1ABDF8DE
:103210001600BDF80E10084400EE100AF8EEC00AC1
:10322000324890ED0A1A9FED340A01EE600AF0EE82
:10323000000A80EE201ABDEEC10A10EE100A00B29C
:103240002A49C8854FF6FF724FF496714FF4E67025
:10325000FFF79BFB002010214FF6FF724FF47843DD
:10326000CDE90021029025A228210520FFF778F959
:10327000002010214FF6FF724FF47843CDE9002172
:10328000029026A23C210520FFF76AF94FF47A70DC
:1032900000F0ECFA002010214FF6FF724FF4784353
:1032A000CDE90021029025A228210520FFF758F939
:1032B00007B0BDEC068BBDE8F08300BF00BFC7E4DC
:1032C0009FED240A094880ED090A6FF00B000749B9
:1032D00088859FED210A084680ED0A0A40F24910D0
:1032E000C8850020704700000000DC432801002052
:1032F0000000F04300008C430000A043546F75634E
:10330000682053637265656E2041646A757374202A
:103310004F4B2120202020202000000020202020B2
:10332000202020202020202020202020202020209D
:1033300020202020202020202000000020202020ED
:10334000202020202020202020202020202020207D
:1033500020202000C284013E3DD6ACBD1FB5012116
:10336000202000F044FF0920029042F22730ADF8FF
:1033700004000020ADF80600ADF80C0001A91B48C0
:1033800001F017FB0121194801F0C8FF0122114685
:10339000164801F0AFFF4FF4407000F04BFB3720B0
:1033A0008DF8000000208DF801008DF8020001204A
:1033B0008DF80300684600F042FB01210B4801F044
:1033C00081FB1FBD10B50121084801F0AAFF0128AB
:1033D0000BD107480068401C05490860012025F012
:1033E000E7FA0121014801F0ADFF10BD00140040D3
:1033F0005C01002000B587B00121082000F0AEFE7E
:103400000121480400F0F3FE07220521684800F07E
:1034100092FC07220621664800F08DFC6020059092
:1034200002208DF818008DF8190000208DF81A0080
:1034300001208DF81B0005A95D4800F0F1FB4FF459
:10344000E13001900020ADF80800ADF80A00ADF8B9
:103450000C00ADF810000C20ADF80E0001A9554885
:1034600001F037F8012240F22551524801F06FF97E
:1034700026208DF8000000208DF801008DF8020054
:1034800001208DF80300684600F0D9FA012149486F
:1034900001F0A7F807B000BD10B504462146454825
:1034A00001F0CAF800BF8021424801F075F90028F8
:1034B000F9D010BD70B505460E46002404E0285D25
:1034C000FFF7EAFF601C84B2B442F8DB70BD70B550
:1034D0000446002504E0605DFFF7DEFF681CC5B20E
:1034E000605D0028F7D170BD10B50246012000E0F4
:1034F00050430B1EA1F10101FAD110BD70472E48B7
:103500000078012804D100202B4908700120704761
:103510000020FCE710B540F22551264801F052F991
:10352000012844D1234801F08BF82449087024482D
:10353000007850B908460078552833D10120204939
:10354000087000201F4908702CE01D4800780128F1
:1035500007D11A480078522824D10220184908704F
:1035600020E017480078022812D114480078164944
:10357000144A1278885413480078401C1149087086
:103580000846007813280DD103200D49087009E082
:103590000B480078032805D1002009490870012054
:1035A0000549087040F22551024801F046F910BD66
:1035B000000C024000440040600100206101002036
:1035C0006201002063010020FC05002000B587B0E7
:1035D0000121022000F0C2FD0121880400F007FE55
:1035E00007220A21694800F0A6FB07220B21674841
:1035F00000F0A1FB4FF44060059002208DF8180008
:103600008DF8190000208DF81A0001208DF81B009C
:1036100005A95E4800F004FB4FF4E1300190002062
:10362000ADF80800ADF80A00ADF80C00ADF81000D8
:103630000C20ADF80E0001A9554800F04AFF012208
:1036400040F22551524801F082F827208DF8000001
:1036500004208DF801008DF8020001208DF8030090
:10366000684600F0ECF90121494800F0BAFF07B0C4
:1036700000BD10B504462146454800F0DDFF00BFFF
:103680008021434801F088F80028F9D010BD70B5BA
:1036900005460E46002404E0285DFFF7EAFF601CA3
:1036A00084B2B442F8DB70BD70B50446002504E076
:1036B000605DFFF7DEFF681CC5B2605D0028F7D1D2
:1036C00070BD10B50246012000E050430B1EA1F171
:1036D0000101FAD110BD70472E480078012804D1AD
:1036E00000202C490870012070470020FCE710B52D
:1036F00040F22551264801F065F8012844D12448BC
:1037000000F09EFF244908702448007850B908460C
:103710000078882833D101202049087000202049F2
:1037200008702CE01D480078012807D11A4800785D
:10373000662824D102201949087020E01748007833
:10374000022812D1144800781649154A1278885474
:1037500013480078401C1249087008460078132866
:103760000DD103200D49087009E00C4800780328AA
:1037700005D100200949087001200649087040F26F
:103780002551034801F059F810BD00000004024023
:10379000004800406401002065010020660100200F
:1037A000670100201006002010B504466FF00400E9
:1037B00000F092F9E11704EB5171C1F3C701394AE6
:1037C00011701046007800EB4001C1EBC0104FF6BD
:1037D000FF7101EAC0003449088010BD0146314A3A
:1037E00012784A434FF0E0235A6100229A611A4648
:1037F000126942F001021A6100BF4FF0E022106925
:1038000000F001021AB100F48032002AF5D04FF026
:10381000E022126922F001024FF0E0231A61002237
:103820009A6170470146204A12884A434FF0E023CC
:103830005A6100229A611A46126942F001021A6125
:1038400000BF4FF0E022106900F001021AB100F44D
:103850008032002AF5D04FF0E022126922F00102F6
:103860004FF0E0231A6100229A61704770B5044658
:103870004FF4077094FBF0F0C6B24FF4077094FB5E
:10388000F0F100FB114085B205E04FF40770FFF73F
:10389000C9FF701EC6B2002EF7D115B12846FFF73A
:1038A000C1FF70BD680100206A01002000BF7047A1
:1038B00000BF4C4A128802F04002002AF9D0C2B27E
:1038C000484B9A80704710B588B0044601210846DD
:1038D00000F044FC0121102000F09AFC072209218D
:1038E000414800F028FA07220A213F4800F023FA55
:1038F0004FF4C060069002208DF81C008DF81D006A
:1039000000208DF81E0001208DF81F0006A9364802
:1039100000F086F902940020ADF80C00ADF80E001E
:10392000ADF81000ADF814000C20ADF8120002A99B
:103930002C4800F0CEFD01212A4800F052FE012261
:1039400040F22551274800F002FF25208DF80400A1
:1039500003208DF805008DF8060001208DF8070082
:1039600001A800F06CF808B010BD10B540F2255168
:103970001C4800F027FF10B31A4800F061FEC4B2E3
:103980001A48008800F40040C8B91848008800F4BC
:10399000804060B10A2C03D000201449088020E048
:1039A0001248008840F400401049088019E00D2CAE
:1039B00006D10E48008840F480400C49088010E091
:1039C0000A480088C0F30D0009490C5407480088D4
:1039D000401C0649088008460088C72801DD0020F1
:1039E000088010BD0010014000000240700100205E
:1039F000240600200948804709480047FEE7FEE703
:103A0000FEE7FEE7FEE7FEE7FEE7FEE7FEE7FEE78E
:103A100004480549054A064B704700003D1A000856
:103A200089010008A0F00020A0FA0020A0F20020E8
:103A3000A0F2002032490143324A1160704770B54C
:103A4000002100230F22C4781CB32E4C246804F4F8
:103A5000E064C4F5E064C4F30721C1F10404E3B2F7
:103A60000A4144789C40E1B28478144021430C0719
:103A7000210E254C05786155047804F01F050124BA
:103A8000AC4005786D11AD0005F1E025C5F80041A9
:103A900009E0047804F01F050124AC401B4D0678B2
:103AA000761145F8264070BD194A0A400243154B6D
:103AB0001B1F1A60704739B1124A121D1268024367
:103AC000104B1B1D1A6006E00E4A121D126882433D
:103AD0000C4B1B1D1A607047042808D14FF0E021E1
:103AE000096941F004014FF0E022116107E04FF055
:103AF000E021096921F004014FF0E02211617047D3
:103B00000000FA050CED00E000E400E080E100E0D8
:103B100080FFFF1F10B504469848844208D1012158
:103B2000084600F086FB0021012000F082FB76E0D1
:103B30009348844208D10121022000F07AFB002141
:103B4000022000F076FB6AE08E48844208D1012111
:103B5000042000F06EFB0021042000F06AFB5EE010
:103B60008948844208D10121082000F062FB00212D
:103B7000082000F05EFB52E08448844208D1012115
:103B8000102000F056FB0021102000F052FB46E010
:103B90007F48844208D10121202000F04AFB002107
:103BA000202000F046FB3AE07A48844208D1012107
:103BB000402000F03EFB0021402000F03AFB2EE0C8
:103BC0007548844208D10121802000F032FB002199
:103BD000802000F02EFB22E07048844208D10121B1
:103BE000801500F026FB0021A01500F022FB16E056
:103BF0006B48844208D10121401500F01AFB0021D6
:103C0000601500F016FB0AE06648844207D10121E6
:103C1000001500F00EFB0021201500F00AFB10BD7E
:103C2000F0B50A4600210023002400BF3DE0012535
:103C300005FA01F3156805EA03049C4234D10568CE
:103C40004F000326BE40B543056015794E00B540D0
:103C50000668354305601579012D02D01579022DCE
:103C600016D185684F000326BE40B543856055795F
:103C70004E00B540866835438560456801268E4014
:103C8000B5434560456896798E40B6B23543456088
:103C9000C5684F000326BE40B543C560D5794E00C8
:103CA000B540C6683543C560491C1029BFD3F0BD77
:103CB0004FF6FF7101600021017141718171C17185
:103CC000704708B54FF480320092009A0A43009280
:103CD000009AC261C161009AC261C2690092C26960
:103CE000009208BD0246002013690B400BB1012071
:103CF00000E0002070470146086980B27047024624
:103D0000002053690B400BB1012000E000207047F8
:103D10000146486980B2704701837047418370470C
:103D20000AB1018300E041837047416170474269F5
:103D30004A4042617047F0B5002300244D07ED0E64
:103D400002FA05F3CE1000F1200555F826504E0773
:103D5000F70E0F26BE40B543CF1000F1200646F8FF
:103D60002750CE1000F1200555F8265045EA0304EF
:103D7000CE1000F1200545F82640F0BD00000240BD
:103D80000004024000080240000C02400010024003
:103D90000014024000180240001C024000200240B3
:103DA0000024024000280240F948006840F0010069
:103DB000F74908600020F64908310860F4480068B7
:103DC000F4490840F2490860F348091D0860F348C7
:103DD000EF4984310860F0481038091D0860EC484C
:103DE000006820F48020EA4908600020E8490C318E
:103DF0000860E7498C31086070470021E44A921C52
:103E0000117011460870704710B50146002200235A
:103E100000204A11012A02D1DD4C236808E0022A61
:103E200003D1DB4C7034236802E0D94C743423682E
:103E300001F01F02012494401C400CB1012000E05D
:103E4000002010BD38B5002000900024002500BFE0
:103E50003120FFF7D9FF05460098401C00900098DC
:103E6000B0F5A04F01D0002DF2D03120FFF7CCFFEC
:103E700008B1012400E00024204638BD014600209E
:103E8000C34A106820F0F80040EAC1001060704793
:103E9000C349086070470021BD4A7032117011702B
:103EA000012802D004280AD104E00121B84A703266
:103EB000117005E00521B64A7032117000E000BFB4
:103EC00000BF7047B7490860704770B5049C41EA6D
:103ED00082150126C6EB530645EA0645054345EA29
:103EE0000465AB4E361D356070BDAD490866704740
:103EF000820142EA0172A64B84331A607047A849D6
:103F00008866704710B5830143EA016343EA027390
:103F10009F4C8834236010BDA14908677047A049B1
:103F2000C864704702460020994B0833186820F097
:103F3000EC6042EA01031843954B08331860704760
:103F400002460020924B0833186820F0784042EA7D
:103F5000010318438E4B0833186070470146002058
:103F60008B4A0832106820F0030008431060704745
:103F700087480830006800F00C00704701460020B8
:103F8000834A0832106820F0F00008431060704740
:103F9000014600207E4A0832106820F4E0500843B1
:103FA0001060704701460020794A0832106820F4FA
:103FB000604040EAC10010607047F0B50021002267
:103FC0000024022500260223714F08373F6807F0BE
:103FD0000C0121B1042905D0082937D105E0724F21
:103FE000076036E0714F076033E0694F3F1D3F685F
:103FF000C7F38056664F3F1D3F6807F03F036EB121
:104000006A4FB7FBF3F7DFF888C10CF1040CDCF85A
:1040100000C0CCF3881C07FB0CF40CE0624FB7FB2C
:10402000F3F7DFF86CC10CF1040CDCF800C0CCF342
:10403000881C07FB0CF4564F3F1D3F68C7F3014730
:104040007F1C7D00B4FBF5F7076002E0564F076068
:1040500000BF00BF4E4F08373F6807F0F001090965
:10406000534F7A5C0768D7404760494F08373F682D
:1040700007F4E051890A4E4F7A5C4768D740876061
:10408000434F08373F6807F46041490B484F7A5C5B
:104090004768D740C760F0BD002100F44072B2F518
:1040A000407F0AD13A4A0832116821F4F811414A96
:1040B00002401143364A08321160354A70321268A4
:1040C000C0F30B031A43324B70331A607047354903
:1040D00044390860704733494039086070473649B1
:1040E0000860704701460020294A8C32106820F091
:1040F0001F004A1E1043264A8C321060704701464A
:104100000020234A8C32106820F4F8504A1E40EAFE
:1041100002201F4A8C3210607047014600201C4A62
:104120008C32106820F4401008431060704701463C
:104130000020174A8C32106820F4400008431060B9
:10414000704701460020124A8C32106820F440303B
:1041500008431060704719490860704739B10C4A2C
:104160003032126802430A4B30331A6006E0084AC4
:10417000303212688243064B30331A607047F9B10F
:10418000034A343212680243014B34331A601CE094
:1041900000380240FFFFF6EA103000240030002013
:1041A00000004742800E47420024F40000127A00CB
:1041B00072010020FFFCFF0F5C014742E011474203
:1041C0008F4A126882438E4B1A60704739B18C4A0D
:1041D000121D126802438A4B1B1D1A6006E0884AB2
:1041E000121D12688243864B1B1D1A60704739B13D
:1041F000834A0C3212680243814B0C331A6006E08A
:104200007F4A0C32126882437D4B0C331A60704730
:1042100039B17B4A103212680243794B10331A606D
:1042200006E0774A103212688243754B10331A60E9
:10423000704739B1724A243A12680243704B243BEA
:104240001A6006E06E4A243A126882436C4B243BA3
:104250001A60704739B16A4A203A12680243684BC3
:10426000203B1A6006E0664A203A12688243644B9B
:10427000203B1A60704739B1614A1C3A1268024308
:104280005F4B1C3B1A6006E05D4A1C3A1268824391
:104290005B4B1C3B1A60704739B1594A143A12689B
:1042A0000243574B143B1A6006E0554A143A126811
:1042B0008243534B143B1A60704739B1504A103A4D
:1042C000126802434E4B103B1A6006E04C4A103A0B
:1042D000126882434A4B103B1A60704739B1484A12
:1042E0001C3212680243464B1C331A6006E0444AF3
:1042F0001C3212688243424B1C331A60704739B13A
:104300003F4A2032126802433D4B20331A6006E0D8
:104310003B4A203212688243394B20331A6070477F
:1043200039B1374A243212680243354B24331A60BC
:1043300006E0334A243212688243314B24331A6038
:10434000704739B12E4A2C32126802432C4B2C3361
:104350001A6006E02A4A2C3212688243284B2C331A
:104360001A60704739B1264A303212680243244B32
:1043700030331A6006E0224A303212688243204B02
:1043800030331A607047012808D11D493C31096853
:1043900041F008011A4A3C32116007E018493C31EB
:1043A000096821F00801164A3C321160704739B1A2
:1043B000134A273A12780243114B273B1A7006E042
:1043C0000F4A273A127882430D4B273B1A707047E9
:1043D0000B484030006840F0807009494031086067
:1043E000704701460020064A283A12680A400AB17E
:1043F000012000E00020704701492639087070470D
:104400003438024010B50446FA48844208D10121EC
:104410001020FFF752FF00211020FFF74EFF57E05A
:10442000F548844209D101214804FFF735FF0021F6
:104430004FF40030FFF730FF4AE0F048844209D1E2
:1044400001218804FFF728FF00214FF48020FFF7A7
:1044500023FF3DE0EA48844209D10121C804FFF767
:104460001BFF00214FF40020FFF716FF30E0E54866
:10447000844209D101210805FFF70EFF00214FF406
:104480008010FFF709FF23E0DF48844208D10121B3
:104490002020FFF712FF00212020FFF70EFF17E07A
:1044A000DA48844209D101218807FFF7F5FE00218F
:1044B0004FF08040FFF7F0FE0AE0D548844207D174
:1044C00001214005FFF7E8FE00216005FFF7E4FE4B
:1044D00010BD2DE9FF4705460E460024A14600BF4A
:1044E000A046B08900B100BF2C8A24F44054F08863
:1044F00004432C82AC8941F20C608443B08831893A
:104500000843718908430443AC81AC8A24F44074A5
:10451000B0890443AC826846FFF74FFDB548854239
:1045200002D0B948854202D1DDF80C9001E0DDF8F7
:104530000890A88900F4004040B109EBC90000EBE5
:10454000091031684900B0FBF1F707E009EBC90039
:1045500000EB091031688900B0FBF1F76420B7FB6C
:10456000F0F004012009642101FB1078A88900F40F
:10457000004040B1322000EBC800B0FBF1F000F089
:104580000700044308E0322000EB08106421B0FB70
:10459000F1F000F00F0004432C81BDE8FF874FF4D9
:1045A0001651016000218180C18001810C2141816F
:1045B00000218181704710B502460020108A20F446
:1045C00070600B884C8823438C882343CC8823431A
:1045D0001843108210BD0021018041808180C1807C
:1045E000704721B1828942F40052828104E08289BD
:1045F0004DF6FF731A4082817047028B02F47F42AE
:104600000283028B0A430283704721B1828942F4FC
:104610000042828103E08289C2F30E0282817047E8
:1046200021B1828A42F40062828204E0828A4FF2DF
:10463000FF731A4082827047C1F30802828070477C
:1046400001468888C0F308007047028A4FF6F0736D
:104650001A400282028A0A430282704721B182898B
:1046600042F00202828104E082894FF6FD731A4013
:104670008281704782894FF2FF731A40828182895A
:104680000A4382817047028A4FF6DF731A40028222
:10469000028A0A430282704721B1028A42F48042B0
:1046A000028204E0028A4BF6FF731A4002827047CE
:1046B000818941F001018181704721B1828A42F0F4
:1046C0000802828204E0828A4FF6F7731A408282DF
:1046D0007047028BD2B20283028B42EA012202832C
:1046E000704721B1828A42F02002828204E0828AED
:1046F0004FF6DF731A408282704721B1828A42F0FE
:104700001002828204E0828A4FF6EF731A4082829E
:104710007047828A4FF6FB731A408282828A0A436C
:104720008282704721B1828A42F00202828204E0D2
:10473000828A4FF6FD731A40828270471AB1838ACB
:104740000B43838202E0838A8B4383827047F0B5F8
:104750000346002400260025002040F66A17B942CF
:1047600000D100BF1846C1F3421401F01F06012713
:1047700007FA06F5012C01D10C3004E0022C01D11E
:10478000103000E014301AB107682F43076002E0D0
:104790000768AF430760F0BD02460020B1F5007F17
:1047A00000D100BF13880B400BB1012000E00020B6
:1047B000704701F40072B2F5007F00D100BFCA4318
:1047C0000280704770B502460024002300250020B7
:1047D00040F66A16B14200D100BFC1F3421501F0A4
:1047E0001F03012606FA03F3012D13D196893340E6
:1047F00017E0000000100140004400400048004065
:10480000004C00400050004000140140007800407F
:10481000007C0040022D02D1168A334001E0968AC6
:1048200033400C12012606FA04F41688344013B102
:104830000CB1012000E0002070BD10B50022002363
:1048400040F66A14A14200D100BF0A12012494402C
:10485000A3B2DC43048010BD10B50446FE48844278
:1048600008D101210846FFF728FD00210120FFF7AC
:1048700024FD9DE0B4F1804F08D101210846FFF7E7
:104880000BFD00210120FFF707FD91E0F348844272
:1048900008D101210220FFF7FFFC00210220FFF7D1
:1048A000FBFC85E0EE48844208D101210420FFF79B
:1048B000F3FC00210420FFF7EFFC79E0E948844293
:1048C00008D101210820FFF7E7FC00210820FFF7AD
:1048D000E3FC6DE0E448844208D101211020FFF799
:1048E000DBFC00211020FFF7D7FC61E0DF488442A9
:1048F00008D101212020FFF7CFFC00212020FFF765
:10490000CBFC55E0DA48844208D101210220FFF7B0
:10491000D4FC00210220FFF7D0FC49E0D5488442B6
:1049200009D101210804FFF7C8FC00214FF48030B1
:10493000FFF7C3FC3CE0D048844209D10121480480
:10494000FFF7BBFC00214FF40030FFF7B6FC2FE06F
:10495000CA48844209D101218804FFF7AEFC002136
:104960004FF48020FFF7A9FC22E0C548844208D11B
:1049700001214020FFF790FC00214020FFF78CFC34
:1049800016E0C048844208D101218020FFF784FC52
:1049900000218020FFF780FC0AE0BB48844207D159
:1049A00001218015FFF778FC0021A015FFF774FCAA
:1049B00010BD00220288A84B98420ED0AC4B984202
:1049C0000BD0B0F1804F08D0A44B984205D0A44B37
:1049D000984202D0A34B984204D14FF68F731A40ED
:1049E0004B881A43A04B984207D0A04B984204D062
:1049F0004FF6FF431A400B891A4302804B68C3628B
:104A00000B880385944B984202D0994B984201D170
:104A10008B7A03860123838270474FF0FF31416018
:104A2000002101800181418081727047018582826D
:104A300070470A46002101884FF68F7319401143D1
:104A40000180704741627047C16270470146486A01
:104A500070470146088D704721B1028842F002027A
:104A6000028004E002884FF6FD731A40028070470E
:104A700021B1028842F00402028004E002884FF66D
:104A8000FB731A400280704721B1028842F0800215
:104A9000028004E002884FF67F731A40028070475C
:104AA00002884FF6F7731A40028002880A43028098
:104AB000704702884FF6FF431A40028002880A437B
:104AC0000280704721B1028842F00102028004E0B6
:104AD00002884FF6FE731A400280704770B50024BA
:104AE00000220023058C4FF6FE7635400584028CAB
:104AF0008388048B4FF68F752C40B51E2C400D8893
:104B00002C43751E2A408D892A434D882A43524DD5
:104B1000A84202D0564DA84213D14FF6F7752A404D
:104B2000CD892A434FF6FB752A408D882A434FF6DC
:104B3000FF652B404FF6FF552B400D8A2B434D8AC6
:104B40002B43838004838D684563028470BD70B5F8
:104B5000002400220023058C4FF6EF7635400584B3
:104B6000028C8388048B48F6FF752C404FF6FF4576
:104B70002C400D884FF6FF7606EA05252C434FF6AC
:104B8000DF752A408D8906EA05152A434D8806EA15
:104B900005152A43304DA84202D0354DA8421DD1FB
:104BA0004FF67F752A40CD894FF6FF7606EA051548
:104BB0002A434FF6BF752A408D8806EA05152A4319
:104BC0004FF6FF352B404FF2FF752B400D8A06EA5A
:104BD00085052B434D8A06EA85052B438380048394
:104BE0008D688563028470BD70B5002400220023A7
:104BF000058C4FF6FF6635400584028C8388848BD4
:104C00004FF68F752C404FF6FC752C400D882C43C9
:104C10004FF6FF552A408D894FF6FF7606EA0525A7
:104C20002A434D8806EA05252A430B4DA84202D0A7
:104C30000F4DA84238D14FF2FF752A40CD894FF66B
:104C4000FF7606EA05252A434FF6FF352A408D8870
:104C500006EA05252A4319E000000140000400404F
:104C600000080040000C004000100040001400400C
:104C70000004014000400140004401400048014060
:104C800000180040001C0040002000404EF6FF7558
:104C90002B404DF6FF752B400D8A06EA05152B4378
:104CA0004D8A06EA05152B43838084838D68C5638E
:104CB000028470BD70B5002200230024058C4EF6DE
:104CC000FF7635400584038C8488828B48F6FF7517
:104CD0002A404FF6FF452A400D884FF6FF7606EA38
:104CE00005252A434DF6FF752B408D8906EA0535CB
:104CF0002B434D8806EA05352B43FE4DA84202D0D2
:104D0000FD4DA84208D14BF6FF752C400D8A4FF699
:104D1000FF7606EA85152C43848082838D680564BE
:104D2000038470BD00210180418081808160818188
:104D3000C18101824182704770B503460020002482
:104D40001846183001258D40ACB21D8CA5431D843A
:104D500009B108290AD100EB610005684FF68F768A
:104D6000354005600568154305600FE00D1FC5F36C
:104D70004E052844056848F6FF763540056005680D
:104D80004FF6FF7606EA02263543056070BD4163A3
:104D9000704781637047C1637047016470470A467A
:104DA0000021018B4FF68F73194011430183704727
:104DB0000A460021018B48F6FF7319404FF6FF7336
:104DC00003EA02231943018370470A460021818BBD
:104DD0004FF68F7319401143818370470A460021B3
:104DE000818B48F6FF7319404FF6FF7303EA0223E5
:104DF0001943818370470A460021018B4FF6F773F0
:104E000019401143018370470A460021018B4FF27C
:104E1000FF7319404FF6FF7303EA0223194301831E
:104E200070470A460021818B4FF6F77319401143F2
:104E3000818370470A460021818B4FF2FF7319402E
:104E40004FF6FF7303EA02231943818370470A4632
:104E50000021018B4FF6FB7319401143018370470A
:104E60000A460021018B4FF6FF3319404FF6FF73BE
:104E700003EA02231943018370470A460021818B0C
:104E80004FF6FB7319401143818370470A46002196
:104E9000818B4FF6FF3319404FF6FF7303EA02236D
:104EA0001943818370470A460021018B4FF67F73B7
:104EB00019401143018370470A460021018BC1F359
:104EC0000E014FF6FF7303EA022319430183704773
:104ED0000A460021818B4FF67F731940114381836D
:104EE00070470A460021818BC1F30E014FF6FF7314
:104EF00003EA02231943818370470A460021018C8B
:104F00004FF6FD7319401143018470470A46002192
:104F1000018C4FF6F77319401143018470470A461C
:104F20000021018C4FF6DF7319404FF6FF7303EA3F
:104F300002131943018470470A460021018C4FF681
:104F40007F7319404FF6FF7303EA0213194301847C
:104F500070470A460021018C4FF6FF5319404FF667
:104F6000FF7303EA02231943018470470A460021B4
:104F7000018C4FF2FF7319404FF6FF7303EA0223CF
:104F80001943018470470A460021018C4DF6FF73D6
:104F900019404FF6FF7303EA023319430184704747
:104FA00030B5002301248C40A3B2048C9C430484BC
:104FB000048C02FA01F5ADB22C43048430BD30B547
:104FC000002304248C40A3B2048C9C430484048CEE
:104FD00002FA01F5ADB22C43048430BD828B4FF24E
:104FE000FF331A408283828B4FF6FF7303EA01235B
:104FF0001A4382837047F0B50C4615460021002203
:105000000026078C4EF6FF7C07EA0C070784818B8D
:10501000028C4FF6FF7707EA043640F6FF47394027
:105020004FF6FF7707EA052739434FF6FF7707EA80
:105030000337394345F6FF773A4046F480573A4301
:1050400081830284F0BD828B4FF6F3731A40828312
:10505000828B0A4382837047F0B50C4615460021C7
:1050600000220026078C4FF6FF6C07EA0C07078426
:10507000818B028C4FF6FF7707EA04264FF60C77F8
:1050800039404FF6FF7707EA03172F4339434FF2B2
:10509000FF573A4046F480773A4381830284F0BD5B
:1050A000028B4FF2FF331A400283028B4FF6FF73DD
:1050B00003EA01231A4302837047F0B50C461546F4
:1050C000002100220026078C4FF6EF7C07EA0C0730
:1050D0000784018B028C4FF6FF7707EA041640F62F
:1050E000FF4739404FF6FF7707EA033739434FF65A
:1050F000FF7703E0000001400004014007EA0527B4
:1051000039434FF65F773A4046F010073A43018340
:105110000284F0BD028B4FF6F3731A400283028BB8
:105120000A4302837047F0B50C4615460021002261
:10513000068C4FF6FE773E400684018B028C4FF6BC
:105140000C7631407E1C06EA03162E4331434FF69F
:10515000F576324044F00106324301830284F0BD0B
:1051600070B505460C46208850B92389A28861880D
:105170002846FFF7D8FFE1882846FFF7CBFF25E058
:10518000208804280AD12389A28861882846FFF74D
:1051900094FFE1882846FFF783FF17E0208808285E
:1051A0000AD12389A28861882846FFF755FFE18844
:1051B0002846FFF748FF09E02389A288618828462E
:1051C000FFF719FFE1882846FFF708FF70BD0021AF
:1051D00001804180012181800021C18001817047CF
:1051E0002DE9F04105460C4600260127608808B9E4
:1051F000022600E00026A088012801D1022700E055
:1052000001272088A0B92389A28861882846FFF752
:105210008AFFE1882846FFF77DFF23893A46314619
:105220002846FFF74AFFE1882846FFF739FF13E0D9
:105230002389A28861882846FFF73FFFE188284636
:10524000FFF72EFF23893A4631462846FFF76BFFCA
:10525000E1882846FFF75EFFBDE8F0810146486B14
:1052600070470146886B70470146C86B704701461E
:10527000086C70470A884B881A438B881A43CB887E
:105280001A430B891A434B891A438B891A43A0F896
:10529000442070470021018041808180C1800181CC
:1052A00041818181704731B1B0F8442042F400421D
:1052B000A0F8442005E0B0F84420C2F30E02A0F8A4
:1052C0004420704721B1828842F00402828004E0C9
:1052D00082884FF6FB731A408280704721B1828822
:1052E00042F00102828004E082884FF6FE731A4089
:1052F000828070471AB183890B43838102E08389DE
:105300008B43838170478182704702460020138A55
:105310000B400BB1012000E000207047CA4302821D
:10532000704730B50246002000230024158A05EAA4
:105330000103958905EA010413B10CB1012000E0D5
:10534000002030BDCA430282704741EA0203A0F840
:10535000483070471AB183890B43838102E0838907
:105360008B438381704721B1828842F0080282809A
:1053700004E082884FF6F7731A40828070470189F3
:105380004FF6F8721140018170470A4600210189E9
:105390004FF68F73194011430181704730B50446B1
:1053A0000D4629462046FFF7F0FF208940F0070010
:1053B000208130BD2DE9F04104460D4616461F46BA
:1053C000602D06D13B46012231462046FFF775FE8F
:1053D00005E03B46012231462046FFF7A4FE294660
:1053E0002046FFF7D2FF208940F007002081BDE86A
:1053F000F08130B50C4600210189C9B24FF6FF7526
:1054000005EA0325154325432943018130BD2DE9D4
:10541000F04105460E4617469846002443463A4654
:1054200031462846FFF7E5FF2C894FF6F870044017
:1054300044F007044FF68F70044044F070042C8150
:10544000BDE8F081F0B504460D4616461F463B46C2
:10545000324629462046FFF7CCFF208940F48040A1
:105460002081F0BD82884FF68F731A408280828837
:105470000A438280704702894FF6F8731A4002810E
:1054800002890A430281704702894FF67F731A40EE
:10549000028102890A4302817047F0B50C46154625
:1054A0001E460021002200230189028B038C4FF647
:1054B000F877394021434FF6FC473A4040F2011754
:1054C0003A434FF6DD773B404FF6FF7707EA061782
:1054D0002F433B43018102830384F0BD21B18288C5
:1054E00042F08002828004E082884FF67F731A4087
:1054F00082807047A0F8501070470000F8B506464B
:105500000C4615460095E788BBB2A788BAB26788F3
:10551000B9B22788B8B2FCF7E2FC304622F0A9FF06
:10552000F8BD10B5FCF7E9FB10BD10B5FFF7F9FFAA
:105530004FF4965300220B490B4822F000FD0B4814
:1055400022F0C5FC4FF4F070084908804FF4A070B9
:105550004880074848610448C860084622F000FDBA
:1055600010BD000008070020EC060020882C002059
:10557000FD540008224A928912B20280204AD28A3F
:1055800012B20A80704710B51D4841680020884754
:105590001B4890F8200000F0800008B1012010BDE9
:1055A0000020FCE770B505460C46FFF7ECFF30B174
:1055B00014491548FFF7DEFF0120A07301E0002029
:1055C000A0731148B0F9000020800E48B0F9000027
:1055D000608070BD10B50A490868804710BD10B5DD
:1055E000FFF7F8FF094823F0FDF80120074908708C
:1055F00007484860084623F00AF90649086010BDCC
:10560000280100208A01002088010020D42C0020DD
:10561000A55500088401002010B5044614B922F0F5
:1056200056FD04461CB900BF00BF002010BD206914
:10563000FCE710B5044614B922F049FD04461CB934
:1056400000BF00BF002010BD6069FCE770B50546D3
:10565000284609F05DFF044604B970BD266920693B
:1056600020B100222521304600F005FC206920B140
:1056700000222621284600F0FEFB2561206920B18A
:1056800000222721284600F0F6FB206920B10022E5
:105690002821304600F0EFFB284605F06BF900BFEB
:1056A000DBE710B5044614B922F011FD04461CB91D
:1056B00000BF00BF002010BDE069FCE710B5044644
:1056C00014B922F004FD04461CB900BF00BF00203D
:1056D00010BD206AFCE770B504460D4614B922F0EF
:1056E000F6FC0446A560606A032812D1E1680868E8
:1056F00009F0CEFE68B9E168486809F0C9FE40B912
:10570000E168886809F0C4FE18B9E16808680BF020
:105710009BF970BD10B5044614B922F0D8FC0446BC
:10572000A06810BD73B584B0044614B922F0CFFC54
:1057300004461CB900BF00BF06B070BDBDF8140020
:105740006085204622F0C6FC401E05B2204622F0AD
:10575000DCFC401E06B233460022114602A800952A
:1057600023F065FC02A920460BF0BDF800BFE3E77B
:10577000FEB504460D4614B922F0A9FC044614B93E
:1057800000BF00BFFEBDE562204622F0A3FC401E24
:1057900006B2204622F0B9FC401E07B23B4600226A
:1057A000114601A8009623F042FC01A920460BF007
:1057B0009AF800BFE6E7FEB504460D4614B922F09C
:1057C00086FC044614B900BF00BFFEBD84F8295012
:1057D000204622F07FFC401E06B2204622F095FCB7
:1057E000401E07B23B460022114601A8009623F056
:1057F0001EFC01A920460BF076F800BFE5E770B566
:1058000005460C46E1B20022284609F0B3FD70BD02
:1058100070B505460C4621B2284604F0D4FF70BD91
:1058200070B505460C4621B2284604F0E5FF70BD70
:1058300070B50546286809F06BFE04460022272152
:10584000206900F018FB00222821606900F013FB9A
:10585000606938B194F8280000F0010010B1606967
:1058600009F026FF00206061A061002240F2624141
:10587000286808F02AFC70BD70B50446206809F05D
:1058800047FE054600F0C8F96861206828610022DB
:105890002621286900F0EFFA70BD2DE9F04FA1B084
:1058A00005460E4617469846DDF8A8A0284609F09A
:1058B0002FFE044600F0B0F98146A069F0B1A0695E
:1058C00048451BD0A069FFF7C1FE0021A06923F065
:1058D000BBF900221146A06904F0A7FF002240F2A4
:1058E0006241A06908F0F1FB94F8280000F0010083
:1058F00010B1484609F0DCFED4F81890A561606943
:1059000048B194F8280000F0010020B1606909F066
:10591000CFFE0020606184F828A00021284623F0F3
:1059200093F900F079F98346002123F08DF90022E4
:105930001146284604F079FF00F06EF983460022F4
:10594000114604F072FF002240F26241284608F03E
:10595000BCFB00F061F98346002240F2624108F08E
:10596000B4FB11A823F056F9294611A800F047F915
:10597000AD48139000BFAD48149000BF394611A840
:1059800000F041F9414611A800F03FF901A823F0C9
:1059900041F901A8216900F032F9394601A800F067
:1059A00032F9414601A800F030F90A2E0FD2DFE8A3
:1059B00006F0050F1D2C3A4965819DB99C4911A837
:1059C00000F01FF90022114611A800F021F9B3E000
:1059D000974911A800F015F9204622F096FB83465E
:1059E0000022594611A800F013F9A5E0904911A82A
:1059F00000F007F9204622F088FBC0F1000B0022DE
:105A0000594611A800F004F996E08A4911A800F05F
:105A1000F8F8204622F05EFB83460022594611A882
:105A200000F0F6F888E0834911A800F0EAF8204673
:105A300022F050FBC0F1000B0022594611A800F0E3
:105A4000E7F879E07A4911A800F0DBF8204622F067
:105A50005CFB83460022594611A800F0D9F874492E
:105A600001A800F0CEF8204622F04FFBC0F1000B59
:105A70005A46002101A800F0CBF85DE06C4911A85E
:105A800000F0BFF8204622F040FBC0F1000B0022DE
:105A9000594611A800F0BCF8654901A800F0B1F81A
:105AA000204622F032FB83465A46002101A800F02E
:105AB000AFF841E05F4911A800F0A3F8204622F0BA
:105AC00009FB83460022594611A800F0A1F8594964
:105AD00001A800F096F8204622F0FCFAC0F1000B75
