:020000040800F2
:10000000D8F60020A11F0008B7020008B9020008B6
:10001000BD020008C1020008C5020008000000007F
:10002000000000000000000000000000C9020008FD
:10003000CB02000800000000CD020008CF0200083B
:10004000BB1F0008BB1F0008BB1F0008BB1F000828
:10005000BB1F0008BB1F0008BB1F0008BB1F000818
:10006000BB1F0008BB1F0008BB1F0008BB1F000808
:10007000BB1F0008BB1F0008BB1F0008BB1F0008F8
:10008000BB1F0008BB1F0008BB1F0008BB1F0008E8
:10009000BB1F0008BB1F0008BB1F0008BB1F0008D8
:1000A000BB1F0008BB1F0008BB1F0008BB1F0008C8
:1000B000BB1F0008BB1F0008BB1F0008BB1F0008B8
:1000C000BB1F0008BB1F0008BB1F0008BB1F0008A8
:1000D000BB1F0008171F0008BB1F0008BB1F00083C
:1000E000BB1F0008BB1F0008BB1F0008BB1F000888
:1000F000BB1F0008BB1F0008BB1F0008BB1F000878
:10010000BB1F0008BB1F0008BB1F0008BB1F000867
:10011000BB1F0008BB1F0008BB1F0008351D0008DF
:10012000BB1F0008BB1F0008BB1F0008BB1F000847
:10013000BB1F0008BB1F0008BB1F0008BB1F000837
:10014000BB1F0008BB1F0008BB1F0008BB1F000827
:10015000BB1F0008BB1F0008BB1F0008BB1F000817
:10016000BB1F0008BB1F0008BB1F0008BB1F000807
:10017000BB1F0008BB1F0008BB1F0008BB1F0008F7
:10018000BB1F0008BB1F000800F002F800F05CF87D
:100190000AA090E8000C82448344AAF10107DA45E2
:1001A00001D100F051F8AFF2090EBAE80F0013F0D8
:1001B000010F18BFFB1A43F001031847C0EF0300FB
:1001C000E0EF03000A444FF0000C10F8013B13F07D
:1001D000070408BF10F8014B1D1108BF10F8015BA0
:1001E000641E05D010F8016B641E01F8016BF9D193
:1001F00013F0080F1EBF10F8014BAD1C0C1B09D1EA
:100200006D1E58BF01F801CBFAD505E014F8016B5B
:1002100001F8016B6D1EF9D59142D6D370470000ED
:100220000023002400250026103A28BF78C1FBD8FF
:10023000520728BF30C148BF0B6070471FB538F068
:1002400056FB1FBD10B510BD38F096F81146FFF7EC
:10025000F5FF00F008F838F0B4F803B4FFF7F2FF48
:1002600003BC01F0F9FD01F031FDA82001F072FDA1
:1002700006F0BCFE03F02FFC03F087FC00BF26F065
:10028000FCF9064603F09EFC054634F057FF044691
:100290003C227821204609F070FB00231A460921F0
:1002A000204609F0CCFE05E000BF2AF0BFFD052086
:1002B00001F0B2FDF8E7704700BFFEE700BFFEE7C0
:1002C00000BFFEE700BFFEE770477047704770470A
:1002D0000CB50020019000907648006840F4803012
:1002E0007449086000BF7348006800F40030009053
:1002F0000198401C0190009818B90198B0F5A04FE2
:10030000F1D16C48006800F4003010B10120009079
:1003100001E0002000900098012846D16548403057
:10032000006840F0805063494031086062480068CE
:1003300040F44040604908605E48083000685D490C
:10034000083108600846006840F40040086008462C
:10035000006840F4A05008605848091F0860081F52
:10036000006840F08070091F086000BF51480068B5
:1003700000F000700028F9D040F205705049086084
:100380004C480830006820F003004A4908310860F2
:100390000846006840F00200086000BF4548083089
:1003A000006800F00C000828F8D10CBD10B54548D5
:1003B000006840F47000434908603E48006840F01F
:1003C00001003C49086000203A490831086039487A
:1003D00000683D490840374908603C48091D0860ED
:1003E000081F006820F48020091F086000203149A0
:1003F0000C310860FFF76CFF4FF000603149803925
:10040000086010BD70B500200022022300240221E4
:10041000284D08352D6805F00C0020B1042806D0C1
:10042000082834D107E02A4D2A4E356033E02A4DA2
:10043000284E35602FE01F4D2D1D2D68C5F38054CB
:100440001C4D2D1D2D6805F03F0154B1224DB5FB0B
:10045000F1F5184E361D3668C6F3881605FB06F210
:1004600009E01B4DB5FBF1F5124E361D3668C6F39B
:10047000881605FB06F20F4D2D1D2D68C5F30145AD
:100480006D1C6B00B2FBF3F5124E356003E0104DAE
:10049000104E356000BF00BF064D08352D68C5F30E
:1004A00003150E4E705D0B4D2D68C540094E35602D
:1004B00070BD000000380240007000400854400742
:1004C000003C024088ED00E0FFFFF6FE1030002403
:1004D0000024F4000000002000127A000400002034
:1004E0001CB501215F2002F00FF94FF480500090FD
:1004F00001208DF8040000208DF8060003208DF8FF
:10050000050001208DF807006946BB4801F05EFE3A
:100510004FF48051B84801F0D5FE48F23200009007
:1005200001208DF8040000208DF8060003208DF8CE
:10053000050001208DF807006946B04801F046FE2D
:1005400048F23201AD4801F0BDFE4FF48240009008
:1005500000208DF8040003208DF8050001208DF89F
:1005600007006946A64801F031FE4FF4A050009004
:1005700001208DF8040000208DF8060003208DF87E
:10058000050001208DF8070069469D4801F01EFE18
:100590004FF4A0519A4801F095FE1CBD70B5044679
:1005A0004FF48061964801F08FFE002519E04FF46A
:1005B0008051914801F088FE04F0800020B1202194
:1005C0008E4801F07FFE03E020218C4801F07CFE84
:1005D0004FF48051884801F075FE6006040E681CD7
:1005E000C5B2082DE3DB4FF48061854801F06AFE57
:1005F00070BD10B504462046FFF7D0FF10BD10B502
:1006000004462012FFF7CAFFE0B2FFF7C7FF10BD94
:1006100010B504464FF40041784801F055FE2046DD
:10062000FFF7BCFF4FF40041744801F04BFE10BDD2
:100630002DE9F04107460C4615461E462A20FFF7D5
:10064000E7FF3846FFF7DBFF2846FFF7D8FF2B20F0
:10065000FFF7DEFF2046FFF7D2FF3046FFF7CFFF60
:100660002C20FFF7D5FFBDE8F08110B5FFF738FF6C
:100670001021624801F028FE642001F0CDFB10211A
:100680005E4801F01FFE642001F0C6FB02215B48BA
:1006900001F018FE642001F0BFFB1120FFF7B8FF46
:1006A000782001F0B9FBF020FFF7B2FFC320FFF77D
:1006B000A0FFF020FFF7ACFF9620FFF79AFF36204F
:1006C000FFF7A6FF2820FFF794FF3A20FFF7A0FFCF
:1006D0000520FFF78EFFE820FFF79AFF4020FFF785
:1006E00088FF8220FFF785FF0720FFF782FF182091
:1006F000FFF77FFF2720FFF77CFF0A20FFF779FF36
:10070000B620FFF776FF3320FFF773FFC520FFF712
:100710007FFF2720FFF76DFFC220FFF779FFA7209B
:10072000FFF767FFE020FFF773FFF020FFF761FF9F
:100730000120FFF75EFF0620FFF75BFF0F20FFF7AA
:1007400058FF1220FFF755FF1D20FFF752FF3620FC
:10075000FFF74FFF5420FFF74CFF4420FFF749FFFE
:100760000C20FFF746FF1820FFF743FF1620FFF786
:1007700040FF1320FFF73DFF1520FFF73AFFE12070
:10078000FFF746FFF020FFF734FF0120FFF731FFAE
:100790000520FFF72EFF0A20FFF72BFF0B20FFF7A6
:1007A00028FF0720FFF725FF3220FFF722FF442014
:1007B000FFF71FFF4420FFF71CFF0C20FFF719FF76
:1007C0001820FFF716FF1720FFF713FF1320FFF77E
:1007D00010FF1620FFF70DFFF020FFF719FF3C2058
:1007E000FFF707FFF020FFF713FF6920FFF701FF76
:1007F0002920FFF70DFF10BD00180240000C024039
:10080000001002402DE9F04706460F4614461D46EB
:10081000DDF820A0681E83B2601E82B239463046E1
:10082000FFF706FFB8460EE0B14606E05046FFF778
:10083000E6FE09F101001FFA80F9A145F6DB08F197
:1008400001001FFA80F8A845EEDBBDE8F0872DE92E
:10085000FC5F04460D4616461F46DDF8308000203A
:10086000019000908146301B401C1FFA80FB781BD2
:10087000401C1FFA80FA3B46324629462046FFF7C5
:10088000D7FE00BF07E0B8F80000FFF7B8FE08F198
:10089000020809F101090BFB0AF04845F3D8BDE84D
:1008A000FC9F70B504460D4616462B462246294647
:1008B0002046FFF7BDFE3046FFF7A1FE70BD2DE9D3
:1008C000FF4F85B081468A460020039083460798F3
:1008D000A0EB09050898A0EB0A06CDF80890CDF822
:1008E00004A0002D01DD012705E00DB9002702E07D
:1008F0004FF0FF376D42002E02DD4FF0010806E099
:1009000016B94FF0000802E04FF0FF387642B542CA
:1009100001DD2C4600E03446002004901EE0019AE0
:1009200091B2029A90B2129AFFF7BBFF0398284443
:100930000390B3440398A04205DD0398001B039085
:10094000029838440290A34504DDABEB040B0198F8
:10095000404401900498401C80B20490611C0498AB
:100960008842DCDB09B0BDE8F08F2DE9F84305468D
:100970000E4617469846089C33463A463146284666
:100980000094FFF79CFF43462A46314628460094D0
:10099000FFF795FF43463A46414628460094FFF745
:1009A0008EFF43463A46314638460094FFF787FFAC
:1009B000BDE8F8832DE9F04706460F469046994674
:1009C0000025444641E07A1B91B2321B90B24A4660
:1009D000FFF767FF7A1B91B2321990B24A46FFF7D0
:1009E00060FF3A1991B2721B90B24A46FFF759FF65
:1009F0003A1B91B2721B90B24A46FFF752FF7A1926
:100A000091B2321990B24A46FFF74BFF3A1B91B2AE
:100A1000721990B24A46FFF744FF3A1991B272191F
:100A200090B24A46FFF73DFF7A1991B2321B90B25D
:100A30004A46FFF736FF6D1C05FB05F004FB040179
:100A400008FB08F0814200DD641EA542BBDDBDE865
:100A5000F0872DE9FE4F0646894692469B460D9C3F
:100A600000962046E11704EB5171C910614389B229
:100A7000019105200290002565E005EB8510F949FC
:100A800011F810009AF80010884259D105EB851032
:100A9000F44901EB400040789AF8011088424FD1A8
:100AA00009EB0400401E83B23019401E82B2494651
:100AB0003046FFF7BDFD00273FE04FF0000836E06D
:100AC0000E9898B905EB8510E64901EB4000801CB3
:100AD000C05D012101FA08F1084018B15846FFF73E
:100AE0008EFD20E00C98FFF78AFD1CE005EB8510D9
:100AF000DC4901EB4000801CC05D012101FA08F1D6
:100B0000084020B15A4649463046FFF7CAFE701CDD
:100B100086B20098301AA04205D1009E09F101006A
:100B20001FFA80F906E008F1010000F0FF08B8F1B3
:100B3000080FC5DB00BF781CC7B201988742BCDB39
:100B400000BF681C85B20298854296DBBDE8FE8F27
:100B50002DE9FE4F0646894692469B460D9C00961F
:100B60002046E11704EB5171C910614389B201912C
:100B70000520029000256DE005EB850000EB451097
:100B8000B94911F810009AF8001088425FD105EBBE
:100B9000850000EB4510B44901EB400040789AF81D
:100BA0000110884253D109EB0400401E83B2301972
:100BB000401E82B249463046FFF73AFD002743E027
:100BC0004FF000083AE00E98A8B905EB850000EB5D
:100BD0004510A54901EB4000801CC05D012101FAD0
:100BE00008F1084018B15846FFF709FD22E00C98BB
:100BF000FFF705FD1EE005EB850000EB45109A4967
:100C000001EB4000801CC05D012101FA08F10840A1
:100C100020B15A4649463046FFF743FE701C86B263
:100C20000098301AA04205D1009E09F101001FFA78
:100C300080F906E008F1010000F0FF08B8F1080FA4
:100C4000C1DB00BF781CC7B201988742B8DB00BF88
:100C5000681C85B2029885428EDBBDE8FE8F2DE9C7
:100C6000FE4F0646894692469B460D9C00962046BE
:100C7000E11704EB5171C910614389B2019105205C
:100C80000290002565E005EB0510784911F8100089
:100C90009AF80010884259D105EB0510734901EB11
:100CA000400040789AF8011088424FD109EB0400C7
:100CB000401E83B23019401E82B249463046FFF7CB
:100CC000B7FC00273FE04FF0000836E00E9898B9D7
:100CD00005EB0510654901EB4000801CC05D01215A
:100CE00001FA08F1084018B15846FFF788FC20E0E7
:100CF0000C98FFF784FC1CE005EB05105B4901EB49
:100D00004000801CC05D012101FA08F1084020B1BB
:100D10005A4649463046FFF7C4FD701C86B200981B
:100D2000301AA04205D1009E09F101001FFA80F996
:100D300006E008F1010000F0FF08B8F1080FC5DB7C
:100D400000BF781CC7B201988742BCDB00BF681C9B
:100D500085B20298854296DBBDE8FE8F2DE9FE4FF5
:100D60008046894615469A46DDE90D470C9E2AE0E5
:100D7000102C09D153462A4649464046CDE9014741
:100D80000096FFF76CFF19E0182C09D153462A464C
:100D900049464046CDE901470096FFF7D9FE0DE0F0
:100DA000202C09D153462A4649464046CDE9014701
:100DB0000096FFF74EFE01E0BDE8FE8FAD1C08EB8C
:100DC00004001FFA80F828780028D1D100BFF3E78B
:100DD0002DE9FF4F83B005468A461746119CAB4666
:100DE000204604EBD071C1F347063046F11706EBFD
:100DF0005171C910614389B20191A7F12000C7B2B6
:100E00000AEB0400401E83B2A819401E82B251466C
:100E10002846FFF70DFC4FF0000954E0102C06D1D6
:100E2000134800EB071010F8090002900BE0202C8B
:100E300006D1104800EB871010F80900029002E07C
:100E400007B0BDE8F08F4FF0000834E01298B8B951
:100E5000012000FA08F00299084068B10698FFF7EF
:100E6000CEFB24E0C4A8030852A70308A8A60308E1
:100E7000F8880308E88E03081098FFF7C0FB16E017
:100E8000012000FA08F00299084020B15146284696
:100E9000069AFFF706FD681C85B2A5EB0B00B04271
:100EA00005D15D460AF101001FFA80FA06E008F15B
:100EB000010000F0FF08B8F1080FC7DB00BF09F11F
:100EC00001001FFA80F901988145A7DB00BFB7E751
:100ED0002DE9FE4F06460F4614469846DDE90D5AA9
:100EE000DDF8309010E0CDE9015ACDF8009022787D
:100EF000434639463046FFF76BFF284605EBD07175
:100F000006EB61018EB2641C20780028EBD1BDE8AD
:100F1000FE8F10B50246012000E050430B1EA1F1E8
:100F20000104E1B2F9D110BD2DE9FF4F85B00746AC
:100F300091461D46DDE913A600200490304606EBDD
:100F4000D071C1F3470B002434E0281B401EC1B20E
:100F50000A20FFF7DEFFB9FBF0F00A21B0FBF1F247
:100F600001FB12080498A0B9681EA04211DDB8F177
:100F7000000F0CD1002004FB0B71CDE900A60290FC
:100F800088B22022129B0699FFF722FF10E0012071
:100F90000490002008F13001CAB204FB0B71CDE9C6
:100FA00000A6029088B2129B0699FFF711FF00BFBE
:100FB000601CC4B2AC42C8DB09B0BDE8F08F2DE9BB
:100FC000FF4F2DED020B2DED028B83B00746B0EEE7
:100FD000408A1446DDE91486304606EBD071C1F331
:100FE000470A9FED3C0A28EE000ABCEEC00A10EE4C
:100FF000100A1FFA80FB002530E0601B401EC1B2C2
:101000000A20FFF786FFBBFBF0F00A21B0FBF1F2EC
:1010100001FB1209A01EA84210D10020A11E01FB55
:101020000A71CDE90086029088B22E220A9B0899A7
:10103000FFF7CEFE681CC5B2601CC4B2002009F1E7
:101040003001CAB205FB0A71CDE90086029088B270
:101050000A9B0899FFF7BCFE681CC5B2A542CCDB11
:1010600003B0BDEC028B06B0BDE8F08F2DE9F05F58
:101070000746884615461E46DDF82890002408EBF2
:101080000600401E83B27819401E82B2414638469F
:10109000FFF7CEFAA24619E04FF0000B10E019F866
:1010A0001400FFF7A6FA012101EB440119F8010031
:1010B000FFF79FFA601C84B20BF101001FFA80FB5E
:1010C000B345ECDB0AF101001FFA80FAAA45E3DB25
:1010D000BDE8F09F0000C84270B50446002500BF7F
:1010E00017E004F0800018B10120FE49086002E01A
:1010F0000020FC4908606006040E0020FA490860E0
:10110000012000F041FE0120F849C1F8B002681C3E
:10111000C5B2082DE5DB70BD70B50646002500247C
:101120000020F1490860F249C1F89402F1490860D1
:101130003046FFF7D1FF062000F026FE0020EB49E5
:10114000C1F8B002012000F01FFE0120E64908604E
:1011500000F01AFE0020E549C1F8B00200BF15E01A
:101160004FF6FF7000EA44040020DF4908600120C8
:1011700000F00AFE0120DD49C1F8B002DD489038D8
:10118000006808B1601C84B2681CC5B2102DE7DB92
:1011900024110120D7490860204670BD2DE9FE4387
:1011A00080460027002406E04046FFF7B5FF2DF8F3
:1011B0001400601C84B2052CF6DB002416E0601CD1
:1011C00085B20FE03DF814003DF81510884207DDA8
:1011D0003DF814603DF815002DF814002DF8156049
:1011E000681C85B2052DEDDB601C84B2042CE6DBA7
:1011F0000027012405E03DF81400384487B2601C44
:1012000084B2042CF7DB032097FBF0F086B2304663
:10121000BDE8FE832DE9F04104460D46B64800784E
:10122000FFF7BCFF0646B5480078FFF7B7FF074653
:1012300026802F800120BDE8F0817FB504460D4651
:1012400002A903A8FFF7E6FF064616B9002004B07E
:1012500070BD694601A8FFF7DDFF06460EB9002004
:10126000F5E7BDF80400BDF80C10884206DCBDF8B7
:101270000C10BDF80400323081420CDBBDF80C00CC
:10128000BDF80410884236DCBDF80410BDF80C002F
:10129000323081422FDABDF80000BDF808108842D4
:1012A00006DCBDF80810BDF80000323081420CDBCE
:1012B000BDF80800BDF8001088421CDCBDF8001025
:1012C000BDF808003230814215DABDF80C10BDF8C7
:1012D0000420881800EBD071C1F34F012180BDF8C4
:1012E0000810BDF80020881800EBD071C1F34F0141
:1012F00029800120ABE70020A9E7F8B504460D4698
:10130000164604F10D018AB2193988B22B462946D6
:101310000096FFF7D4FA05F10D0083B2193881B2B7
:10132000224620460096FFF7CAFA6A1C91B2621C58
:1013300090B23246FFF7B5FA6A1C91B2621E90B2C3
:101340003246FFF7AEFA6A1E91B2621C90B2324684
:10135000FFF7A7FA6A1E91B2621E90B23246FFF7FB
:10136000A0FA3346062229462046FFF723FBF8BDA4
:1013700070B504460D461646324629462046FFF70C
:1013800090FA611C88B232462946FFF78AFA681C37
:1013900081B232462046FFF784FA6A1C91B2621C81
:1013A00090B23246FFF77DFA70BD2DE9FF4F85B050
:1013B00081468A460020039083460798A0EB0905E2
:1013C0000898A0EB0A06CDF80890CDF804A0002DEF
:1013D00001DD012705E00DB9002702E04FF0FF37DE
:1013E0006D42002E02DD4FF0010806E016B94FF005
:1013F000000802E04FF0FF387642B54201DD2C468E
:1014000000E03446002004901EE0019A91B2029A56
:1014100090B2129AFFF7ACFF039828440390B344AC
:101420000398A04205DD0398001B039002983844FE
:101430000290A34504DDABEB040B019840440190FE
:101440000498401C80B20490611C04988842DCDB44
:1014500009B0BDE8F08F10B504462648783800681A
:1014600000285ED12CB12649A1F10A00FFF7E5FE64
:1014700035E02349A1F10A00FFF7DFFE78B32048E9
:101480001638B0F92C0000EE100AB8EEC00A1C485D
:10149000163890ED091A808900EE900AF8EE600A7D
:1014A00001EE200ABCEEC00A10EE100A14491639EB
:1014B00088810846B0F92E0000EE100AB8EEC00A86
:1014C000084690ED0A1AC08A00EE900AF8EE600A0B
:1014D00001EE200ABCEEC00A10EE100AC8820848CD
:1014E00016380FE094824142B0024342000043426A
:1014F00000804142B00242424400002045000020EA
:101500002A00002090F8200000F0800008BBC020D6
:10151000FE4981F82000084681898182C18AC18301
:1015200017E0FA4890F8200000F0800040B1F7483A
:1015300090F8200020F08000F44981F8200008E0B5
:101540000021F2488182C1834FF6FF70EF49888104
:10155000C882EE4890F8200000F0800010BD2DE910
:10156000F0432DED068B87B04FF0000800BF4FF61B
:10157000FF704FF4A0734FF4F07200210090084602
:10158000FFF740F9002010214FF6FF724FF4784327
:10159000CDE900210290DEA228210520FFF798FC6A
:1015A0004FF4784214210846FFF7A7FE0020D749E0
:1015B00081F820009FEDDE0A084680ED090A36E337
:1015C000D248416801208847D04890F8200000F0B8
:1015D000C00040287ED1CD4890F8200020F0400087
:1015E000CA4981F820000846808903A921F828000B
:1015F000C648C08A01EB8801488008F1010000F06C
:10160000FF08B8F1010F09D0B8F1020F14D0B8F1FA
:10161000030F20D0B8F1040F0DD12CE04FF6FF726C
:1016200014210846FFF769FE4FF4784214214FF465
:10163000E670FFF762FEF8E24FF6FF7214214FF4F6
:10164000E670FFF75AFE4FF478424FF4967114207B
:10165000FFF753FEE9E24FF6FF724FF49671142044
:10166000FFF74BFE4FF478424FF496714FF4E6705B
:10167000FFF743FED9E2BDF80C10BDF81020881A20
:10168000002801DB014600E041420C46BDF80E2077
:10169000BDF81210501A002801DB014600E041425B
:1016A0000D4664436D43601936F00BFF41EC1A0B95
:1016B000B0EE4A0AF0EE6A0A36F08CFEB0EE409ABE
:1016C000F0EE609A51EC190B36F0CEFE86B2BDF802
:1016D000141000E0AAE2BDF81820881A002801DBE7
:1016E000014600E041420C46BDF81620BDF81A1034
:1016F000501A002801DB014600E041420D466443D8
:101700006D43601936F0DDFE41EC1A0BB0EE4A0A6B
:10171000F0EE6A0A36F05EFEB0EE409AF0EE609AA5
:1017200051EC190B36F0A0FE87B200EE106AF8EE0D
:10173000400A00EE107AB8EE400A80EE801A11EEF0
:10174000109A484637F062F841EC180B9FED790B80
:1017500053EC102B51EC180B36F0C6FE0AD39FED5C
:10176000770B53EC102B51EC180B36F04DFF01D3D7
:1017700006B187BB4FF000084FF6FF724FF4967129
:101780004FF4E670FFF7B9FD4FF478421421084694
:10179000FFF7B3FD002010214FF6FF724FF478439E
:1017A000CDE90021029067A228210520FFF790FBD8
:1017B000002010214FF6FF724FF47843CDE900214D
:1017C000029068A23C210520FFF782FB4FF47A705B
:1017D00000F022FB2BE2FFE7BDF80C10BDF814204F
:1017E000881A002801DB014600E041420C46BDF8A2
:1017F0000E20BDF81610501A002801DB014600E04B
:1018000041420D4664436D43601936F05AFE41EC87
:101810001A0BB0EE4A0AF0EE6A0A36F0DBFDB0EEC3
:10182000409AF0EE609A51EC190B36F01DFE86B22C
:10183000BDF81010BDF81820881A002801DB0146F9
:1018400000E041420C46BDF81220BDF81A10501AB3
:10185000002801DB014600E041420D4664436D4330
:10186000601936F02EFE41EC1A0BB0EE4A0AF0EE8B
:101870006A0A36F0AFFDB0EE409AF0EE609A51EC95
:10188000190B36F0F1FD87B200EE106AF8EE400A4F
:1018900000EE107AB8EE400A80EE801A11EE109A2F
:1018A000484636F0B3FF41EC180B9FED220B53EC8A
:1018B000102B51EC180B36F017FE08D39FED1F0BC1
:1018C00053EC102B51EC180B36F09EFE6ED24FF0FD
:1018D00000084FF6FF724FF496714FF4E670FFF771
:1018E0000CFD4FF4784214210846FFF706FD002056
:1018F00010214FF6FF724FF47843CDE9002102909A
:1019000010A228210520FFF7E3FA3BE01400002095
:10191000506C656173652061646A7573746D656E82
:1019200074207468652073637265656E2E00000014
:1019300000000000666666666666EE3FCDCCCCCCE5
:10194000CCCCF03F546F7563682041646A75737442
:101950002046696C65642120202020202020202042
:1019600020000000506C656173652041646A7573E6
:101970007420416761696E212020202020202020D2
:1019800020000000002010214FF6FF724FF4784332
:10199000CDE900210290AFF234023C210520FFF78F
:1019A00097FA4FF47A7000F037FA40E1BDF8101062
:1019B000BDF81420881A002801DB014600E04142EE
:1019C0000C46BDF81220BDF81610501A002801DB95
:1019D000014600E041420D4664436D43601936F014
:1019E00070FD41EC1A0BB0EE4A0AF0EE6A0A36F0CE
:1019F000F1FCB0EE409AF0EE609A51EC190B36F023
:101A000033FD86B2BDF80C10BDF81820881A0028E6
:101A100001DB014600E041420C46BDF80E20BDF856
:101A20001A10501A002801DB014600E041420D4621
:101A300064436D43601936F044FD41EC1A0BB0EE7F
:101A40004A0AF0EE6A0A36F0C5FCB0EE409AF0EEB3
:101A5000609A51EC190B36F007FD87B200EE106A60
:101A6000F8EE400A00EE107AB8EE400A80EE801AD6
:101A700011EE109A484636F0C9FE41EC180B1FEDE6
:101A8000530B53EC102B51EC180B36F02DFD08D3F3
:101A90001FED560B53EC102B51EC180B36F0B4FD28
:101AA00032D24FF000084FF6FF724FF496714FF4A8
:101AB000E670FFF722FC4FF4784214210846FFF746
:101AC0001CFC002010214FF6FF724FF47843CDE943
:101AD00000210290AFF2941228210520FFF7F8F9B7
:101AE000002010214FF6FF724FF47843CDE900211A
:101AF0000290AFF290123C210520FFF7E9F94FF474
:101B00007A7000F089F992E0BDF81000BDF80C1071
:101B1000401A00EE100AB8EEC00ADFED4F0A80EE60
:101B2000801A4E4880ED091ABDF81000BDF80C105F
:101B3000084400EE100AF8EEC00A484890ED091A71
:101B40009FED470A01EE600AF0EE000A80EE201ACF
:101B5000BDEEC10A10EE100A00B240498885BDF8FA
:101B60001600BDF80E10401A00EE100AB8EEC00ABA
:101B7000DFED3C0A80EE801A384880ED0A1ABDF885
:101B80001600BDF80E10084400EE100AF8EEC00A68
:101B9000324890ED0A1A9FED340A01EE600AF0EE29
:101BA000000A80EE201ABDEEC10A10EE100A00B243
:101BB0002A49C8854FF6FF724FF496714FF4E670CC
:101BC000FFF79BFB002010214FF6FF724FF4784384
:101BD000CDE90021029025A228210520FFF778F900
:101BE000002010214FF6FF724FF47843CDE9002119
:101BF000029026A23C210520FFF76AF94FF47A7083
:101C000000F00AF9002010214FF6FF724FF47843DC
:101C1000CDE90021029025A228210520FFF758F9DF
:101C200007B0BDEC068BBDE8F08300BF00BFC7E482
:101C30009FED240A094880ED090A6FF00B0007495F
:101C400088859FED210A084680ED0A0A40F2491076
:101C5000C8850020704700000000DC43140000200D
:101C60000000F04300008C430000A043546F7563F4
:101C7000682053637265656E2041646A75737420D1
:101C80004F4B212020202020200000002020202059
:101C90002020202020202020202020202020202044
:101CA0002020202020202020200000002020202094
:101CB0002020202020202020202020202020202024
:101CC00020202000C284013E3DD6ACBD1FB50121BD
:101CD000202000F062FD0920029042F22730ADF88A
:101CE00004000020ADF80600ADF80C0001A918486A
:101CF00001F035F90121164801F0E6FD01221146F7
:101D0000134801F0CDFD4FF4407000F069F9372021
:101D10008DF8000000208DF801008DF802000120F0
:101D20008DF80300684600F060F90121084801F0D1
:101D30009FF91FBD10B50121054801F0C8FD01281C
:101D400005D125F00BF90121014801F0D1FD10BDAD
:101D50000014004010B504466FF0040000F092F942
:101D6000E11704EB5171C1F3C701394A11701046F4
:101D7000007800EB4001C1EBC0104FF6FF7101EAA3
:101D8000C0003449088010BD0146314A12784A43E8
:101D90004FF0E0235A6100229A611A46126942F01C
:101DA00001021A6100BF4FF0E022106900F0010249
:101DB0001AB100F48032002AF5D04FF0E022126907
:101DC00022F001024FF0E0231A6100229A6170476D
:101DD0000146204A12884A434FF0E0235A6100220C
:101DE0009A611A46126942F001021A6100BF4FF06F
:101DF000E022106900F001021AB100F48032002ADA
:101E0000F5D04FF0E022126922F001024FF0E023FA
:101E10001A6100229A61704770B504464FF407704A
:101E200094FBF0F0C6B24FF4077094FBF0F100FBA6
:101E3000114085B205E04FF40770FFF7C9FF701E2F
:101E4000C6B2002EF7D115B12846FFF7C1FF70BD0D
:101E5000460000204800002000BF704700BF4C4AE9
:101E6000128802F04002002AF9D0C2B2484B9A8090
:101E7000704710B588B004460121084600F044FCC4
:101E80000121102000F09AFC07220921414800F0AE
:101E900028FA07220A213F4800F023FA4FF4C060D5
:101EA000069002208DF81C008DF81D0000208DF892
:101EB0001E0001208DF81F0006A9364800F086F9A3
:101EC00002940020ADF80C00ADF80E00ADF8100043
:101ED000ADF814000C20ADF8120002A92C4800F057
:101EE000CEFD01212A4800F052FE012240F2255188
:101EF000274800F002FF25208DF8040003208DF80C
:101F000005008DF8060001208DF8070001A800F0FB
:101F10006CF808B010BD10B540F225511C4800F017
:101F200027FF10B31A4800F061FEC4B21A480088B7
:101F300000F40040C8B91848008800F4804060B13F
:101F40000A2C03D000201449088020E012480088A1
:101F500040F400401049088019E00D2C06D10E48CD
:101F6000008840F480400C49088010E00A4800884E
:101F7000C0F30D0009490C5407480088401C06496D
:101F8000088008460088C72801DD0020088010BDB1
:101F90000010014000000240500000205C020020C0
:101FA0000948804709480047FEE7FEE7FEE7FEE7ED
:101FB000FEE7FEE7FEE7FEE7FEE7FEE70448054929
:101FC000054A064B70470000AD0300088901000870
:101FD000D8EC0020D8F60020D8EE0020D8EE002063
:101FE00032490143324A1160704770B50021002325
:101FF0000F22C4781CB32E4C246804F4E064C4F5AA
:10200000E064C4F30721C1F10404E3B20A41447857
:102010009C40E1B28478144021430C07210E254CEA
:1020200005786155047804F01F050124AC4005785B
:102030006D11AD0005F1E025C5F8004109E0047817
:1020400004F01F050124AC401B4D0678761145F8BD
:10205000264070BD194A0A400243154B1B1F1A60E7
:10206000704739B1124A121D12680243104B1B1DF2
:102070001A6006E00E4A121D126882430C4B1B1DAB
:102080001A607047042808D14FF0E021096941F037
:1020900004014FF0E022116107E04FF0E0210969EF
:1020A00021F004014FF0E022116170470000FA05B1
:1020B0000CED00E000E400E080E100E080FFFF1FA5
:1020C00010B504469848844208D10121084600F022
:1020D00086FB0021012000F082FB76E093488442D9
:1020E00008D10121022000F07AFB0021022000F03B
:1020F00076FB6AE08E48844208D10121042000F07A
:102100006EFB0021042000F06AFB5EE089488442F7
:1021100008D10121082000F062FB0021082000F016
:102120005EFB52E08448844208D10121102000F077
:1021300056FB0021102000F052FB46E07F4884420D
:1021400008D10121202000F04AFB0021202000F0CE
:1021500046FB3AE07A48844208D10121402000F051
:102160003EFB0021402000F03AFB2EE075488442FF
:1021700008D10121802000F032FB0021802000F0F6
:102180002EFB22E07048844208D10121801500F026
:1021900026FB0021A01500F022FB16E06B488442CC
:1021A00008D10121401500F01AFB0021601500F054
:1021B00016FB0AE06648844207D10121001500F0B1
:1021C0000EFB0021201500F00AFB10BDF0B50A46F9
:1021D00000210023002400BF3DE0012505FA01F3A2
:1021E000156805EA03049C4234D105684F000326B4
:1021F000BE40B543056015794E00B54006683543CD
:1022000005601579012D02D01579022D16D185684A
:102210004F000326BE40B543856055794E00B5405A
:10222000866835438560456801268E40B543456024
:10223000456896798E40B6B235434560C5684F0013
:102240000326BE40B543C560D5794E00B540C6688B
:102250003543C560491C1029BFD3F0BD4FF6FF714F
:1022600001600021017141718171C171704708B530
:102270004FF480320092009A0A430092009AC261A1
:10228000C161009AC261C2690092C269009208BD30
:102290000246002013690B400BB1012000E0002032
:1022A00070470146086980B27047024600205369B2
:1022B0000B400BB1012000E0002070470146486947
:1022C00080B2704701837047418370470AB1018330
:1022D00000E0418370474161704742694A40426172
:1022E0007047F0B5002300244D07ED0E02FA05F308
:1022F000CE1000F1200555F826504E07F70E0F2698
:10230000BE40B543CF1000F1200646F82750CE104E
:1023100000F1200555F8265045EA0304CE1000F1DF
:10232000200545F82640F0BD0000024000040240B0
:1023300000080240000C024000100240001402405D
:1023400000180240001C024000200240002402400D
:1023500000280240F948006840F00100F749086091
:102360000020F64908310860F4480068F449084044
:10237000F2490860F348091D0860F348EF498431C9
:102380000860F0481038091D0860EC48006820F427
:102390008020EA4908600020E8490C310860E749DC
:1023A0008C31086070470021E44A921C117011467C
:1023B0000870704710B501460022002300204A1122
:1023C000012A02D1DD4C236808E0022A03D1DB4C4C
:1023D0007034236802E0D94C7434236801F01F0282
:1023E000012494401C400CB1012000E0002010BDED
:1023F00038B5002000900024002500BF3120FFF7F1
:10240000D9FF05460098401C00900098B0F5A04FF9
:1024100001D0002DF2D03120FFF7CCFF08B101240C
:1024200000E00024204638BD01460020C34A106861
:1024300020F0F80040EAC10010607047C34908600E
:1024400070470021BD4A703211701170012802D00E
:1024500004280AD104E00121B84A7032117005E065
:102460000521B64A7032117000E000BF00BF70470E
:10247000B7490860704770B5049C41EA821501268F
:10248000C6EB530645EA0645054345EA0465AB4EEF
:10249000361D356070BDAD4908667047820142EA5D
:1024A0000172A64B84331A607047A849886670474A
:1024B00010B5830143EA016343EA02739F4C8834F9
:1024C000236010BDA14908677047A049C8647047E0
:1024D00002460020994B0833186820F0EC6042EA6D
:1024E00001031843954B08331860704702460020DB
:1024F000924B0833186820F0784042EA01031843F1
:102500008E4B083318607047014600208B4A083212
:10251000106820F0030008431060704787480830B7
:10252000006800F00C00704701460020834A083222
:10253000106820F0F000084310607047014600204A
:102540007E4A0832106820F4E0500843106070475B
:1025500001460020794A0832106820F4604040EAC1
:10256000C10010607047F0B5002100220024022550
:1025700000260223714F08373F6807F00C0121B194
:10258000042905D0082937D105E0724F076036E0ED
:10259000714F076033E0694F3F1D3F68C7F38056B6
:1025A000664F3F1D3F6807F03F036EB16A4FB7FBB0
:1025B000F3F7DFF888C10CF1040CDCF800C0CCF3B1
:1025C000881C07FB0CF40CE0624FB7FBF3F7DFF855
:1025D0006CC10CF1040CDCF800C0CCF3881C07FBC8
:1025E0000CF4564F3F1D3F68C7F301477F1C7D0029
:1025F000B4FBF5F7076002E0564F076000BF00BF6D
:102600004E4F08373F6807F0F0010909534F7A5CD5
:102610000768D7404760494F08373F6807F4E051E3
:10262000890A4E4F7A5C4768D7408760434F083726
:102630003F6807F46041490B484F7A5C4768D740D0
:10264000C760F0BD002100F44072B2F5407F0AD1AE
:102650003A4A0832116821F4F811414A0240114304
:10266000364A08321160354A70321268C0F30B03E3
:102670001A43324B70331A60704735494439086049
:1026800070473349403908607047364908607047E1
:1026900001460020294A8C32106820F01F004A1E93
:1026A0001043264A8C321060704701460020234AAE
:1026B0008C32106820F4F8504A1E40EA02201F4A6B
:1026C0008C3210607047014600201C4A8C32106822
:1026D00020F4401008431060704701460020174A5C
:1026E0008C32106820F440000843106070470146A7
:1026F0000020124A8C32106820F4403008431060E9
:10270000704719490860704739B10C4A3032126875
:1027100002430A4B30331A6006E0084A303212682E
:102720008243064B30331A607047F9B1034A3432A2
:1027300012680243014B34331A601CE00038024037
:10274000FFFFF6EA1030002400300020000047426E
:10275000800E47420024F40000127A00520000204C
:10276000FFFCFF0F5C014742E01147428F4A1268AD
:1027700082438E4B1A60704739B18C4A121D126821
:1027800002438A4B1B1D1A6006E0884A121D12681C
:102790008243864B1B1D1A60704739B1834A0C3245
:1027A00012680243814B0C331A6006E07F4A0C32F8
:1027B000126882437D4B0C331A60704739B17B4AF3
:1027C000103212680243794B10331A6006E0774AE0
:1027D000103212688243754B10331A60704739B15A
:1027E000724A243A12680243704B243B1A6006E096
:1027F0006E4A243A126882436C4B243B1A6070473D
:1028000039B16A4A203A12680243684B203B1A6089
:1028100006E0664A203A12688243644B203B1A6005
:10282000704739B1614A1C3A126802435F4B1C3B46
:102830001A6006E05D4A1C3A126882435B4B1C3BFF
:102840001A60704739B1594A143A12680243574B1B
:10285000143B1A6006E0554A143A12688243534BFF
:10286000143B1A60704739B1504A103A126802435B
:102870004E4B103B1A6006E04C4A103A12688243F5
:102880004A4B103B1A60704739B1484A1C321268F3
:102890000243464B1C331A6006E0444A1C3212685D
:1028A0008243424B1C331A60704739B13F4A203291
:1028B000126802433D4B20331A6006E03B4A203247
:1028C00012688243394B20331A60704739B1374A56
:1028D000243212680243354B24331A6006E0334A2F
:1028E000243212688243314B24331A60704739B165
:1028F0002E4A2C32126802432C4B2C331A6006E00D
:102900002A4A2C3212688243284B2C331A607047B3
:1029100039B1264A303212680243244B30331A60F0
:1029200006E0224A303212688243204B30331A606C
:102930007047012808D11D493C31096841F0080160
:102940001A4A3C32116007E018493C31096821F00D
:102950000801164A3C321160704739B1134A273AD0
:1029600012780243114B273B1A7006E00F4A273AB0
:10297000127882430D4B273B1A7070470B4840304A
:10298000006840F080700949403108607047014696
:102990000020064A283A12680A400AB1012000E0E5
:1029A00000207047014926390870704734380240CA
:1029B00010B50446FA48844208D101211020FFF7DF
:1029C00052FF00211020FFF74EFF57E0F5488442E8
:1029D00009D101214804FFF735FF00214FF40030F1
:1029E000FFF730FF4AE0F048844209D10121880412
:1029F000FFF728FF00214FF48020FFF723FF3DE081
:102A0000EA48844209D10121C804FFF71BFF0021D5
:102A10004FF40020FFF716FF30E0E548844209D16B
:102A200001210805FFF70EFF00214FF48010FFF78A
:102A300009FF23E0DF48844208D101212020FFF76D
:102A400012FF00212020FFF70EFF17E0DA48844232
:102A500009D101218807FFF7F5FE00214FF08040E2
:102A6000FFF7F0FE0AE0D548844207D10121400576
:102A7000FFF7E8FE00216005FFF7E4FE10BD2DE939
:102A8000FF4705460E460024A14600BFA046B08978
:102A900000B100BF2C8A24F44054F08804432C82F7
:102AA000AC8941F20C608443B08831890843718954
:102AB00008430443AC81AC8A24F44074B0890443D5
:102AC000AC826846FFF74FFDB548854202D0B94851
:102AD000854202D1DDF80C9001E0DDF80890A8896C
:102AE00000F4004040B109EBC90000EB0910316867
:102AF0004900B0FBF1F707E009EBC90000EB091052
:102B000031688900B0FBF1F76420B7FBF0F00401F5
:102B10002009642101FB1078A88900F4004040B12D
:102B2000322000EBC800B0FBF1F000F007000443D6
:102B300008E0322000EB08106421B0FBF1F000F057
:102B40000F0004432C81BDE8FF874FF4165101604C
:102B500000218180C18001810C214181002181817E
:102B6000704710B502460020108A20F470600B8870
:102B70004C8823438C882343CC88234318431082FA
:102B800010BD0021018041808180C180704721B14A
:102B9000828942F40052828104E082894DF6FF73FB
:102BA0001A4082817047028B02F47F420283028BBB
:102BB0000A430283704721B1828942F40042828134
:102BC00003E08289C2F30E028281704721B1828ABA
:102BD00042F40062828204E0828A4FF2FF731A405C
:102BE00082827047C1F3080282807047014688885C
:102BF000C0F308007047028A4FF6F0731A40028251
:102C0000028A0A430282704721B1828942F002029D
:102C1000828104E082894FF6FD731A4082817047F9
:102C200082894FF2FF731A40828182890A4382812E
:102C30007047028A4FF6DF731A400282028A0A4303
:102C40000282704721B1028A42F48042028204E08B
:102C5000028A4BF6FF731A4002827047818941F065
:102C600001018181704721B1828A42F0080282828B
:102C700004E0828A4FF6F7731A4082827047028B13
:102C8000D2B20283028B42EA01220283704721B151
:102C9000828A42F02002828204E0828A4FF6DF7349
:102CA0001A408282704721B1828A42F010028282E9
:102CB00004E0828A4FF6EF731A4082827047828A5C
:102CC0004FF6FB731A408282828A0A4382827047DF
:102CD00021B1828A42F00202828204E0828A4FF6A7
:102CE000FD731A40828270471AB1838A0B43838234
:102CF00002E0838A8B4383827047F0B50346002449
:102D000000260025002040F66A17B94200D100BF16
:102D10001846C1F3421401F01F06012707FA06F511
:102D2000012C01D10C3004E0022C01D1103000E064
:102D300014301AB107682F43076002E00768AF43F9
:102D40000760F0BD02460020B1F5007F00D100BF52
:102D500013880B400BB1012000E00020704701F404
:102D60000072B2F5007F00D100BFCA4302807047F5
:102D700070B50246002400230025002040F66A16A4
:102D8000B14200D100BFC1F3421501F01F0301267B
:102D900006FA03F3012D13D19689334017E00000A2
:102DA000001001400044004000480040004C00403A
:102DB000005000400014014000780040007C0040BA
:102DC000022D02D1168A334001E0968A33400C125C
:102DD000012606FA04F41688344013B10CB1012020
:102DE00000E0002070BD10B50022002340F66A14F8
:102DF000A14200D100BF0A1201249440A3B2DC43D7
:102E0000048010BD10B50446FE48844208D101215B
:102E10000846FFF728FD00210120FFF724FD9DE073
:102E2000B4F1804F08D101210846FFF70BFD0021C6
:102E30000120FFF707FD91E0F348844208D101210A
:102E40000220FFF7FFFC00210220FFF7FBFC85E0DA
:102E5000EE48844208D101210420FFF7F3FC002151
:102E60000420FFF7EFFC79E0E948844208D1012112
:102E70000820FFF7E7FC00210820FFF7E3FC6DE0E6
:102E8000E448844208D101211020FFF7DBFC002137
:102E90001020FFF7D7FC61E0DF48844208D1012110
:102EA0002020FFF7CFFC00212020FFF7CBFC55E0CE
:102EB000DA48844208D101210220FFF7D4FC002126
:102EC0000220FFF7D0FC49E0D548844209D1012116
:102ED0000804FFF7C8FC00214FF48030FFF7C3FC63
:102EE0003CE0D048844209D101214804FFF7BBFCF3
:102EF00000214FF40030FFF7B6FC2FE0CA488442AF
:102F000009D101218804FFF7AEFC00214FF4802095
:102F1000FFF7A9FC22E0C548844208D101214020E6
:102F2000FFF790FC00214020FFF78CFC16E0C04822
:102F3000844208D101218020FFF784FC00218020F9
:102F4000FFF780FC0AE0BB48844207D101218015CD
:102F5000FFF778FC0021A015FFF774FC10BD0022DC
:102F60000288A84B98420ED0AC4B98420BD0B0F1DF
:102F7000804F08D0A44B984205D0A44B984202D071
:102F8000A34B984204D14FF68F731A404B881A43D3
:102F9000A04B984207D0A04B984204D04FF6FF4375
:102FA0001A400B891A4302804B68C3620B88038561
:102FB000944B984202D0994B984201D18B7A038668
:102FC0000123838270474FF0FF314160002101806F
:102FD00001814180817270470185828270470A4673
:102FE000002101884FF68F7319401143018070470B
:102FF00041627047C16270470146486A70470146A6
:10300000088D704721B1028842F00202028004E07C
:1030100002884FF6FD731A400280704721B1028882
:1030200042F00402028004E002884FF6FB731A406B
:103030000280704721B1028842F08002028004E0E1
:1030400002884FF67F731A400280704702884FF65D
:10305000F7731A40028002880A4302807047028890
:103060004FF6FF431A40028002880A4302807047ED
:1030700021B1028842F00102028004E002884FF68A
:10308000FE731A400280704770B5002400220023AE
:10309000058C4FF6FE7635400584028C8388048BC0
:1030A0004FF68F752C40B51E2C400D882C43751E95
:1030B0002A408D892A434D882A43524DA84202D086
:1030C000564DA84213D14FF6F7752A40CD892A43B1
:1030D0004FF6FB752A408D882A434FF6FF652B403B
:1030E0004FF6FF552B400D8A2B434D8A2B4383808F
:1030F00004838D684563028470BD70B5002400228E
:103100000023058C4FF6EF7635400584028C8388CA
:10311000048B48F6FF752C404FF6FF452C400D8878
:103120004FF6FF7606EA05252C434FF6DF752A4059
:103130008D8906EA05152A434D8806EA05152A43B6
:10314000304DA84202D0354DA8421DD14FF67F75B3
:103150002A40CD894FF6FF7606EA05152A434FF639
:10316000BF752A408D8806EA05152A434FF6FF35BC
:103170002B404FF2FF752B400D8A06EA85052B4345
:103180004D8A06EA85052B43838004838D68856319
:10319000028470BD70B5002400220023058C4FF618
:1031A000FF6635400584028C8388848B4FF68F75CB
:1031B0002C404FF6FC752C400D882C434FF6FF55E4
:1031C0002A408D894FF6FF7606EA05252A434D8869
:1031D00006EA05252A430B4DA84202D00F4DA8420E
:1031E00038D14FF2FF752A40CD894FF6FF7606EAB7
:1031F00005252A434FF6FF352A408D8806EA052526
:103200002A4319E00000014000040040000800408B
:10321000000C004000100040001400400004014079
:1032200000400140004401400048014000180040B7
:10323000001C0040002000404EF6FF752B404DF66C
:10324000FF752B400D8A06EA05152B434D8A06EAC9
:1032500005152B43838084838D68C563028470BD0C
:1032600070B5002200230024058C4EF6FF76354011
:103270000584038C8488828B48F6FF752A404FF6BC
:10328000FF452A400D884FF6FF7606EA05252A43BA
:103290004DF6FF752B408D8906EA05352B434D8889
:1032A00006EA05352B43FE4DA84202D0FD4DA8424B
:1032B00008D14BF6FF752C400D8A4FF6FF7606EAD3
:1032C00085152C43848082838D680564038470BDDA
:1032D000002101804180818081608181C1810182E2
:1032E0004182704770B5034600200024184618300C
:1032F00001258D40ACB21D8CA5431D8409B1082960
:103300000AD100EB610005684FF68F763540056005
:103310000568154305600FE00D1FC5F34E052844F1
:10332000056848F6FF763540056005684FF6FF767C
:1033300006EA02263543056070BD4163704781632C
:103340007047C1637047016470470A460021018BD2
:103350004FF68F7319401143018370470A460021CD
:10336000018B48F6FF7319404FF6FF7303EA0223FF
:103370001943018370470A460021818B4FF68F73F2
:1033800019401143818370470A460021818B48F61A
:10339000FF7319404FF6FF7303EA02231943818339
:1033A00070470A460021018B4FF6F773194011430D
:1033B000018370470A460021018B4FF2FF731940C9
:1033C0004FF6FF7303EA02231943018370470A464D
:1033D0000021818B4FF6F7731940114381837047A9
:1033E0000A460021818B4FF2FF7319404FF6FF739D
:1033F00003EA02231943818370470A460021018BA7
:103400004FF6FB7319401143018370470A460021B0
:10341000018B4FF6FF3319404FF6FF7303EA022387
:103420001943018370470A460021818B4FF6FB73D5
:1034300019401143818370470A460021818B4FF662
:10344000FF3319404FF6FF7303EA022319438183C8
:1034500070470A460021018B4FF67F7319401143D4
:10346000018370470A460021018BC1F30E014FF61C
:10347000FF7303EA02231943018370470A460021C0
:10348000818B4FF67F7319401143818370470A4641
:103490000021818BC1F30E014FF6FF7303EA022373
:1034A0001943818370470A460021018C4FF6FD7352
:1034B00019401143018470470A460021018C4FF6E0
:1034C000F77319401143018470470A460021018CAB
:1034D0004FF6DF7319404FF6FF7303EA02131943E7
:1034E000018470470A460021018C4FF67F73194012
:1034F0004FF6FF7303EA02131943018470470A462B
:103500000021018C4FF6FF5319404FF6FF7303EA79
:1035100002231943018470470A460021018C4FF2AF
:10352000FF7319404FF6FF7303EA02231943018426
:1035300070470A460021018C4DF6FF7319404FF683
:10354000FF7303EA023319430184704730B5002347
:1035500001248C40A3B2048C9C430484048C02FAA2
:1035600001F5ADB22C43048430BD30B500230424F2
:103570008C40A3B2048C9C430484048C02FA01F5B1
:10358000ADB22C43048430BD828B4FF2FF331A401E
:103590008283828B4FF6FF7303EA01231A438283EF
:1035A0007047F0B50C461546002100220026078C16
:1035B0004EF6FF7C07EA0C070784818B028C4FF6DE
:1035C000FF7707EA043640F6FF4739404FF6FF77AA
:1035D00007EA052739434FF6FF7707EA03373943F0
:1035E00045F6FF773A4046F480573A438183028498
:1035F000F0BD828B4FF6F3731A408283828B0A43AD
:1036000082837047F0B50C46154600210022002643
:10361000078C4FF6FF6C07EA0C070784818B028C3E
:103620004FF6FF7707EA04264FF60C7739404FF63E
:10363000FF7707EA03172F4339434FF2FF573A400A
:1036400046F480773A4381830284F0BD028B4FF2C7
:10365000FF331A400283028B4FF6FF7303EA012304
:103660001A4302837047F0B50C461546002100222C
:103670000026078C4FF6EF7C07EA0C070784018BC6
:10368000028C4FF6FF7707EA041640F6FF473940F1
:103690004FF6FF7707EA033739434FF6FF7703E02A
:1036A000000001400004014007EA052739434FF6B6
:1036B0005F773A4046F010073A4301830284F0BD39
:1036C000028B4FF6F3731A400283028B0A43028384
:1036D0007047F0B50C46154600210022068C4FF6C7
:1036E000FE773E400684018B028C4FF60C7631400B
:1036F0007E1C06EA03162E4331434FF6F576324020
:1037000044F00106324301830284F0BD70B50546E2
:103710000C46208850B92389A28861882846FFF783
:10372000D8FFE1882846FFF7CBFF25E02088042852
:103730000AD12389A28861882846FFF794FFE1888F
:103740002846FFF783FF17E0208808280AD123893D
:10375000A28861882846FFF755FFE1882846FFF7D1
:1037600048FF09E02389A28861882846FFF719FFEE
:10377000E1882846FFF708FF70BD002101804180E5
:10378000012181800021C180018170472DE9F04134
:1037900005460C4600260127608808B9022600E08D
:1037A0000026A088012801D1022700E001272088F7
:1037B000A0B92389A28861882846FFF78AFFE1889B
:1037C0002846FFF77DFF23893A4631462846FFF712
:1037D0004AFFE1882846FFF739FF13E02389A288D2
:1037E00061882846FFF73FFFE1882846FFF72EFF54
:1037F00023893A4631462846FFF76BFFE188284681
:10380000FFF75EFFBDE8F0810146486B7047014657
:10381000886B70470146C86B70470146086C70475B
:103820000A884B881A438B881A43CB881A430B8922
:103830001A434B891A438B891A43A0F844207047D6
:103840000021018041808180C1800181418181818D
:10385000704731B1B0F8442042F40042A0F844204F
:1038600005E0B0F84420C2F30E02A0F844207047EF
:1038700021B1828842F00402828004E082884FF6FF
:10388000FB731A408280704721B1828842F00102A6
:10389000828004E082884FF6FE731A40828070476F
:1038A0001AB183890B43838102E083898B4383812F
:1038B00070478182704702460020138A0B400BB18B
:1038C000012000E000207047CA430282704730B5F3
:1038D0000246002000230024158A05EA0103958989
:1038E00005EA010413B10CB1012000E0002030BD55
:1038F000CA430282704741EA0203A0F84830704789
:103900001AB183890B43838102E083898B438381CE
:10391000704721B1828842F00802828004E08288E8
:103920004FF6F7731A408280704701894FF6F8729C
:103930001140018170470A46002101894FF68F73BB
:10394000194011430181704730B504460D462946A0
:103950002046FFF7F0FF208940F00700208130BDAE
:103960002DE9F04104460D4616461F46602D06D14E
:103970003B46012231462046FFF775FE05E03B46F7
:10398000012231462046FFF7A4FE29462046FFF7D4
:10399000D2FF208940F007002081BDE8F08130B5DA
:1039A0000C4600210189C9B24FF6FF7505EA0325CF
:1039B000154325432943018130BD2DE9F0410546DA
:1039C0000E4617469846002443463A463146284656
:1039D000FFF7E5FF2C894FF6F870044044F0070428
:1039E0004FF68F70044044F070042C81BDE8F081E4
:1039F000F0B504460D4616461F463B46324629465C
:103A00002046FFF7CCFF208940F480402081F0BDA4
:103A100082884FF68F731A40828082880A438280A0
:103A2000704702894FF6F8731A40028102890A43EF
:103A30000281704702894FF67F731A400281028922
:103A40000A4302817047F0B50C4615461E46002118
:103A5000002200230189028B038C4FF6F87739404E
:103A600021434FF6FC473A4040F201173A434FF6E4
:103A7000DD773B404FF6FF7707EA06172F433B43BE
:103A8000018102830384F0BD21B1828842F080026B
:103A9000828004E082884FF67F731A4082807047EC
:103AA000A0F8501070470000F8B506460C461546C1
:103AB0000095E788BBB2A788BAB26788B9B22788F1
:103AC000B8B2FCF7C4FE304622F0A9FFF8BD10B52D
:103AD000FCF7CBFD10BD10B5FFF7F9FF4FF496537F
:103AE00000220B490B4822F000FD0B4822F0C5FCD8
:103AF0004FF4F070084908804FF4A07048800748E0
:103B000048610448C860084622F000FD10BD00006E
:103B10004003002024030020C0280020A93A000808
:103B2000224A928912B20280204AD28A12B20A80B4
:103B3000704710B51D484168002088471B4890F821
:103B4000200000F0800008B1012010BD0020FCE73B
:103B500070B505460C46FFF7ECFF30B11449154827
:103B6000FFF7DEFF0120A07301E00020A0731148E1
:103B7000B0F9000020800E48B0F90000608070BDF0
:103B800010B50A490868804710BD10B5FFF7F8FF67
:103B9000094823F0FDF801200749087007484860EC
:103BA000084623F00AF90649086010BD14000020F9
:103BB0006A000020680000200C290020513B00080A
:103BC0006400002010B5044614B922F056FD0446E6
:103BD0001CB900BF00BF002010BD2069FCE710B574
:103BE000044614B922F049FD04461CB900BF00BFC9
:103BF000002010BD6069FCE770B50546284609F055
:103C00005DFF044604B970BD2669206920B1002219
:103C10002521304600F005FC206920B10022262134
:103C2000284600F0FEFB2561206920B100222721F3
:103C3000284600F0F6FB206920B1002228213046FA
:103C400000F0EFFB284605F06BF900BFDBE710B58D
:103C5000044614B922F011FD04461CB900BF00BF90
:103C6000002010BDE069FCE710B5044614B922F04D
:103C700004FD04461CB900BF00BF002010BD206A2F
:103C8000FCE770B504460D4614B922F0F6FC044674
:103C9000A560606A032812D1E168086809F0CEFEC9
:103CA00068B9E168486809F0C9FE40B9E168886808
:103CB00009F0C4FE18B9E16808680BF09BF970BD03
:103CC00010B5044614B922F0D8FC0446A06810BD13
:103CD00073B584B0044614B922F0CFFC04461CB975
:103CE00000BF00BF06B070BDBDF81400608520465F
:103CF00022F0C6FC401E05B2204622F0DCFC401E2D
:103D000006B233460022114602A8009523F065FC56
:103D100002A920460BF0BDF800BFE3E7FEB504465C
:103D20000D4614B922F0A9FC044614B900BF00BF27
:103D3000FEBDE562204622F0A3FC401E06B22046EE
:103D400022F0B9FC401E07B23B460022114601A8F2
:103D5000009623F042FC01A920460BF09AF800BF20
:103D6000E6E7FEB504460D4614B922F086FC04468B
:103D700014B900BF00BFFEBD84F82950204622F0D0
:103D80007FFC401E06B2204622F095FC401E07B282
:103D90003B460022114601A8009623F01EFC01A913
:103DA00020460BF076F800BFE5E770B505460C46F7
:103DB000E1B20022284609F0B3FD70BD70B505469A
:103DC0000C4621B2284604F0D4FF70BD70B50546FC
:103DD0000C4621B2284604F0E5FF70BD70B50546DB
:103DE000286809F06BFE044600222721206900F0B4
:103DF00018FB00222821606900F013FB606938B1CC
:103E000094F8280000F0010010B1606909F026FF65
:103E100000206061A061002240F26241286808F041
:103E20002AFC70BD70B50446206809F047FE0546BF
:103E300000F0C8F9686120682861002226212869FD
:103E400000F0EFFA70BD2DE9F04FA1B005460E4627
:103E500017469846DDF8A8A0284609F02FFE04462C
:103E600000F0B0F98146A069F0B1A06948451BD0C7
:103E7000A069FFF7C1FE0021A06923F0BBF9002271
:103E80001146A06904F0A7FF002240F26241A06938
:103E900008F0F1FB94F8280000F0010010B148464A
:103EA00009F0DCFED4F81890A561606948B194F877
:103EB000280000F0010020B1606909F0CFFE002069
:103EC000606184F828A00021284623F093F900F0CF
:103ED00079F98346002123F08DF900221146284606
:103EE00004F079FF00F06EF983460022114604F0D9
:103EF00072FF002240F26241284608F0BCFB00F04D
:103F000061F98346002240F2624108F0B4FB11A837
:103F100023F056F9294611A800F047F9AD4813904F
:103F200000BFAD48149000BF394611A800F041F918
:103F3000414611A800F03FF901A823F041F901A87A
:103F4000216900F032F9394601A800F032F9414602
:103F500001A800F030F90A2E0FD2DFE806F0050FB5
:103F60001D2C3A4965819DB99C4911A800F01FF9A3
:103F70000022114611A800F021F9B3E0974911A8D9
:103F800000F015F9204622F096FB834600225946A0
:103F900011A800F013F9A5E0904911A800F007F965
:103FA000204622F088FBC0F1000B0022594611A8E0
:103FB00000F004F996E08A4911A800F0F8F82046CC
:103FC00022F05EFB83460022594611A800F0F6F865
:103FD00088E0834911A800F0EAF8204622F050FB5F
:103FE000C0F1000B0022594611A800F0E7F879E073
:103FF0007A4911A800F0DBF8204622F05CFB8346EA
:104000000022594611A800F0D9F8744901A800F01F
:10401000CEF8204622F04FFBC0F1000B5A4600219B
:1040200001A800F0CBF85DE06C4911A800F0BFF8E2
:10403000204622F040FBC0F1000B0022594611A897
:1040400000F0BCF8654901A800F0B1F8204622F064
:1040500032FB83465A46002101A800F0AFF841E048
:104060005F4911A800F0A3F8204622F009FB83461F
:104070000022594611A800F0A1F8594901A800F002
:1040800096F8204622F0FCFAC0F1000B5A460021B7
:1040900001A800F093F825E0514911A800F087F835
:1040A000204622F0EDFAC0F1000B0022594611A87B
:1040B00000F084F84A4901A800F079F8204622F07F
:1040C000DFFA83465A46002101A800F077F809E09C
:1040D000444911A800F06BF8FF22002111A800F05C
:1040E0006DF800BF00BF00222521484600F099F975
:1040F00011A823F0A8F801A823F0A5F821B0BDE885
:10410000F08F2DE9F04105462DB1D5F8540122F08C
:1041100039FFBDE8F0814FF0FF36002022F08DFC22
:1041200004460FE0D4F8540122F02CFF0746BE42AB
:1041300001D2304600E038460646204622F07DFC9B
:10414000044600BF002CEDD13046E2E710B504462E
:1041500014B922F092FA044614B900BF00BF10BD92
:1041600022F005FFC4F8540100BFF8E710B504467B
:1041700014B922F082FA044614B900BF00BF10BD82
:104180002068C06A10B12068C16A884700BFF6E79E
:1041900010B5044614B922F070FA04461CB900BFE9
:1041A00000BF002010BD6068FCE7016070474160FF
:1041B0007047816270474A42C2627047C1610162C2
:1041C0004262704710B522F058FA0446FFF7FAFC35
:1041D00010BD0000253E0008DD3D0008CD3D000873
:1041E000BD3D0008AB3D000810B50446207EC0F37D
:1041F000800008B1002010BD207A232802D0242896
:1042000003D100E000BF0120F5E700BF00BF4FF47D
:104210008041606803F0FCF808B90020EBE7207AE1
:1042200011381C2823D2DFE800F00E0F10111213F2
:10423000141516171822221922221A1D1B1C2222BD
:1042400022221E1F222000BF00BF00BF00BF00BFF0
:1042500000BF00BF00BF00BF00BF00BF00BF00BF66
:1042600000BF00BF00BF00BF00BF0020C3E70120A8
:10427000C1E7024600BF00BF906808B90020704740
:104280009068807E884201D80020F8E79068C06876
:1042900001EB410300EB8300F1E72DE9F041064615
:1042A0000D4616B96868046800E0346800E02468C8
:1042B00014B120690028FAD014B90120BDE8F081BA
:1042C000206908B90120F9E70020E8602946204666
:1042D000226990470127287E00F0010000B10027E5
:1042E0003846EBE72DE9F041044601F0AEFE074603
:1042F0009FB13868806818B1217A38688268904721
:10430000207EC0F3400010B10120BDE8F081207E86
:1043100000F0010008B10020F7E701260EB90020E7
:1043200003E000216068FFF7A4FF05464FF0000896
:1043300027E02868F0B1287A00F08000802819D1A1
:10434000287A802805D0287A20F08000217A8842B7
:1043500010D16868E060204629688847207EC0F355
:10436000400008B10120D0E7207E00F0010008B134
:104370000020CAE708F1010841466068FFF779FFAD
:1043800005460DB1012ED4D021460020FFF785FF50
:1043900006460EB9002003E000216068FFF769FFC0
:1043A00005464FF0000823E02868D0B1287A00F0D5
:1043B0008000B0B9287A18B1287A217A884210D1C1
:1043C0006868E060204629688847207EC0F3400086
:1043D00008B1012099E7207E00F0010008B100201B
:1043E00093E708F1010841466068FFF742FF054680
:1043F0000DB1012ED8D0012E11D16068406870B186
:104400002046FFF7F1FE50B16068406860602046CA
:10441000FFF768FF0646012E01D0002075E7304601
:1044200073E7F0B587B004460D46164614B901206F
:1044300007B0F0BD00BF00BF009401948DF8085094
:104440000020039004969DF8180020F001008DF8DC
:1044500018009DF8180020F004008DF818009DF851
:10446000180020F002008DF81800F7480068059049
:10447000F549C1F800D06846FFF734FF0746F24916
:10448000059808603846D3E701460868704701463A
:10449000486870470146087A20F08000704701465E
:1044A000086970470146C8687047017E21F0040121
:1044B000091D01767047017E21F00201891C0176F9
:1044C0007047E2480068401CE04908600846006800
:1044D00070470146DC4A10680BE042688A4202D00D
:1044E00002688A4204D1027E22F00102521C027646
:1044F00040690028F1D170472DE9F04104460D468E
:1045000016461F4600BF00BF204602F0AFFFA0685E
:10451000807E401CA1688876A268927E02EB4202EF
:104520009100A268D06824F069FEA168C86000BF4D
:10453000A068C06818B900BF00BF00BFFEE700BF99
:10454000A068C168807E401E00EB400041F820500A
:10455000A068C268807E401E00EB400002EB800035
:104560000672A068C168807E401E00EB400001EB2F
:1045700080004760A068C168807E401E00EB40005C
:1045800001EB8000BDE8F08170B504460E4600BF27
:1045900000BFA06808B9002070BD002500BF3AE048
:1045A0003EB1A068C06805EB450150F82100B0425B
:1045B00030D10FE0A068C06805EB450100EB810138
:1045C000A068C268681C00EB400002EB80030DCBC2
:1045D0000DC16D1CA068807E401EA842EADCA06868
:1045E000807E401EA1688876A268927E02EB42021D
:1045F0009100A268D06824F001FEA168C86000BFE5
:10460000A068C06818B900BF00BF00BFFEE700BFC8
:104610000120C1E76D1CA068807EA842C0DC00209C
:10462000BAE72DE9F04104460E46174600BF00BF29
:10463000A06810B90020BDE8F081002500BF47E068
:104640003EB1A068C06805EB450150F82100002884
:104650003DD0A068C06805EB450100EB81004068D3
:10466000B84234D113E0A068C06805EB450100EB07
:104670008101A068C268681C00EB400002EB800367
:10468000D3E900209B68C1E901030A606D1CA068A2
:10469000807E401EA842E6DCA068807E401EA168A5
:1046A0008876A268927E02EB42029100A268D068EE
:1046B00024F0A4FDA168C86000BFA068C06818B954
:1046C00000BF00BF00BFFEE700BF0120B3E76D1CC5
:1046D000A068807EA842B3DC0020ACE770B5044639
:1046E0000E4600BF00BFA06808B9002070BD0025BD
:1046F00000BF39E0A068C06805EB450100EB810010
:10470000B04230D10FE0A068C06805EB450100EB76
:104710008101A068C268681C00EB400002EB8003C6
:104720000DCB0DC16D1CA068807E401EA842EADC46
:10473000A068807E401EA1688876A268927E02EB07
:1047400042029100A268D06824F058FDA168C860B8
:1047500000BFA068C06818B900BF00BF00BFFEE777
:1047600000BF0120C2E76D1CA068807EA842C1DCAA
:104770000020BBE710B502460B4600BF00BF9068A3
:1047800008B9002010BD002100BF10E09068C0688B
:1047900001EB410450F82400984207D19068C068AA
:1047A00001EB410400EB84004068EBE7491C906892
:1047B000807E8842EADC0020E4E700B50246107AF9
:1047C00001282CD0107A022829D0107A032826D06C
:1047D000107A042823D0107A052820D0107A0628D1
:1047E0001DD0107A07281AD0107A082817D0107A0E
:1047F000092814D0107A0A2811D0107A0B280ED06C
:10480000107A0C280BD0107A0D2808D0107A0E28B8
:1048100005D0107A0F2802D0107A102803D1104644
:10482000FFF73DFE00BD00BF00BF0020FAE700B566
:104830000246107A1A2802D0107A1B2808D1104696
:10484000FFF72DFE00BD00006C000020700000206E
:1048500000BF00BF0020F5E700B50246107A15281A
:104860000ED0107A14280BD0107A162808D0107A9F
:10487000182805D0107A172802D0107A192803D1E9
:104880001046FFF70CFE00BD00BF00BF0020FAE796
:1048900000B50246107A292803D11046FFF7FFFD24
:1048A00000BD00BF00BF0020FAE700B50246107A45
:1048B0000D2808D11046FFF7F2FD03460BB118682A
:1048C00000BD0020FCE700BF00BF0020F8E700B5F6
:1048D0000246107A092803D11046FFF7E0FD00BD1B
:1048E00000BF00BF0020FAE710B503460C46187A57
:1048F00013280DD11846FFF7D2FD0246B2F9000089
:10490000A04202DDB2F9000000E02046108001E084
:1049100000BF00BF10BD00B50246107A2C2803D19D
:104920001046FFF7BCFD00BD00BF00BF0020FAE746
:1049300000B50246107A112803D11046FFF7AFFDEB
:1049400000BD00BF00BF0020FAE700B50246107AA4
:10495000122805D11046FFF7A2FD0346586800BD96
:1049600000BF00BF0020FAE710B503460A46187AD8
:10497000122808D11846FFF792FD0446207890428D
:1049800000DA227001E000BF00BF10BD10B51C218D
:10499000F94824F0BDF810BD10B5F74824F0DBF855
:1049A000044600BF1CB900BF00BF00BFFEE700BF48
:1049B0000CB9002010BD0421204624F0A9F80020E5
:1049C000E060207E20F00100207600202061207E23
:1049D00020F002002076207E20F00400001D2076CA
:1049E000207E20F0080008302076002060612046FC
:1049F000E0E72DE9F041054600260027002022F0DF
:104A000074FA044616E0204601F022FB8046206D31
:104A1000A8420AD1B8F1020F02D12046BDE8F081C8
:104A2000B8F1040F00D126462746204622F05DFA51
:104A3000044600BF002CE6D10EB13046EEE70FB1C0
:104A40003846EBE7002022F050FAE7E72DE9F04185
:104A50000446E06868B12046FFF7CBFF0746E168EF
:104A60003A4608680F21FFF7DCFCE168086804F0AB
:104A700057FA204624F095F805460BE02868806830
:104A800018B100202968896888602946204624F0EA
:104A9000E8F80546002DF1D1002022F026FA06465E
:104AA0000AE0306DA04203D10021304601F067FBDF
:104AB000304622F01AFA0646002EF2D1204624F0A3
:104AC00025F92146AC4824F0D9F8204624F087FB8C
:104AD000BDE8F081A94908607047A84800687047A0
:104AE0002DE9FC5F044689469246207E00F00100D5
:104AF00008B1BDE8FC9FE56800264FF0010B0120DE
:104B0000019000BF85B9207EC0F3C00000B956B93E
:104B1000019800B9EDE72046C84705464FF0000B65
:104B20000020019000E0E4E716B92E4606B9E0E760
:104B3000BBF1000F06D029462046D0470546B542B6
:104B400000D1D6E74FF0010B05B9DBE7286802F08A
:104B500074FC00F0800000B1D4E72F6809E0012167
:104B6000384602F055FC00B105E0384608F070FF09
:104B70000746002FF3D100BF2FB10121384602F0C4
:104B800047FC00B1BEE700BF00BFE068A84200D10B
:104B9000AFE7E06890B12046FFF72BFF0090E16897
:104BA00008680F21009AFFF73CFC0746012F00D050
:104BB0009FE7E168086804F0B3F900BFE5602046AC
:104BC000FFF717FF0746E1683A4608680E21FFF72E
:104BD00028FC8046B8F1010F00D08AE7E168086838
:104BE00004F09EF9206910B120462169884700BF72
:104BF0007FE710B50446624A62492046FFF770FF1E
:104C000010BD10B50446604A60492046FFF768FFB2
:104C100010BD70B50446207EC0F3C005207E20F094
:104C2000080008302076207EC0F3800018B92046A6
:104C3000FFF7E7FF06E0207EC0F3800010B12046BA
:104C4000FFF7D7FF207E65F3C300207670BD2DE906
:104C5000F04107460C460FB9BDE8F08100BF00BF28
:104C6000384623F09EFF06460AE03068A04202D193
:104C700000BF00BFF0E73146384623F0F2FF06469A
:104C8000002EF2D1204602F0E7FB8046B8F1000F7B
:104C90000DD0A068806850B1A0688068C0680068C6
:104CA000A04204D14046FFF7B4FF00BF00BFA06898
:104CB00010B9204602F0DAFBA0688760384623F07E
:104CC000B0FF054600BF1DB900BF00BF00BFFEE733
:104CD00000BF05B9C0E72C60384623F062FFA84248
:104CE00002D13846FFF795FF00BF00BF00BFB3E712
:104CF000014609B900207047C86808B90020FAE7E2
:104D0000C8680068F7E72DE9F04704460D460CB97E
:104D1000BDE8F0872E46207EC0F340003546A8420D
:104D200000D1F5E7207E66F3410020762046FFF7AC
:104D3000DFFF074697B12046FFF75BFE8146E1683B
:104D40004A4608680E21FFF76CFB8046B8F1010F58
:104D500000D0DDE7384604F0E3F800BF00BFD7E736
:104D60002DE9F04106460EB9BDE8F081304602F06B
:104D700073FB044664B9F7E7B42A002074000020EE
:104D8000978B0208718C0208638C0208A38B0208BF
:104D9000207E00F0010000B1E6E700212046FFF789
:104DA000B2FF204623F0FDFE05463CE02868B042F5
:104DB00034D1E068B0B1E0680068B04212D020465B
:104DC000FFF717FE8046E168424608680F21FFF7AB
:104DD00028FB0746012F00D0C6E7E168086804F009
:104DE0009FF800BFE560E068B8B1206910B12046C7
:104DF000216988472046FFF7FCFD8046E16842466E
:104E000008680E21FFF70DFB0746012F00D0ABE726
:104E1000E168086804F084F800BF06E029462046EF
:104E200023F01FFF0546002DC0D100BF00BF9BE748
:104E30002DE9F04107460D46384602F00DFB0646C7
:104E4000284602F009FB8046464501D0BDE8F081C6
:104E500006B9FBE7304623F0A4FE04460DE02068C7
:104E6000B84201D1256003E02068A84200D1276044
:104E70002146304623F0F5FE0446002CEFD1F068C1
:104E80000068B84203D12846FFF76AFF06E0F068E1
:104E90000068A84202D13846FFF762FF00BFD5E79D
:104EA0002DE9F0410546284602F0D6FA04460CB931
:104EB000BDE8F08100BF00BFE06808B3E0680068AB
:104EC000A84221D1207E00F0010018B1207E20F000
:104ED00001002076204623F064FEE168884210D16C
:104EE000204623F0C5FEE16888420AD12046FFF73C
:104EF00080FD0746E1683A4608680F21FFF791FAFE
:104F000002E02046FFF785FEE06828B1E06800680F
:104F1000A84201D10020E060204623F042FE064670
:104F200014E03068A8420CD13146204623F0A6FE9A
:104F3000304624F054F9A86810B10020A9688860B0
:104F400006E03146204623F08CFE0646002EE8D1CE
:104F500000BF00BF00BF00BFAAE770B50546E86804
:104F600078B12846FFF745FD0646E96832460868ED
:104F70000F21FFF756FAE968086803F0D1FF002017
:104F8000E860284623F00DFE04460BE020688068A8
:104F900018B100202168896888602146284623F0DE
:104FA00060FE0446002CF1D1284623F0AFFE70BD10
:104FB00021B9027E22F00102027604E0027E22F094
:104FC0000102521C0276704773B505462846FFF76A
:104FD0008FFE04460CB901207CBD01AA0D2120469C
:104FE000FFF71FFAF8E701617047027E61F3820262
:104FF00002767047027E61F3C30202767047014673
:1050000009B9002070470869FCE7014609B900208A
:105010007047087EC0F34000FAE7014609B9002056
:105020007047087EC0F3C000FAE710B5044620467A
:1050300023F0BCFE10BD00004179C1F340010029FE
:105040001ED0002242628262C262417921F00102D6
:1050500042710022426482640283428390F84010CD
:1050600021F00F0280F8402000228283C2838287D1
:10507000C287417921F0020242710021FE4A11608B
:10508000704701464878C0F3400010B10020FA4A4A
:1050900010604878C0F34000704770B504466078EF
:1050A000C0F3C00048B10021216261620020206489
:1050B0006064607820F008006070EF49206A086042
:1050C000A56A0846006878B300BF00BFEB48082116
:1050D0000268E9480068FFF7A4F92046FFF7D1FF0E
:1050E00000B170BDDDB9607800F0010058B9E34847
:1050F00004210268E0480068FFF793F92046FFF7B3
:10510000C0FF00B1EDE7DD4807210268DA4800681A
:10511000FFF787F92046FFF7B4FF00B1E1E7002170
:1051200021620020206460643DB1204601F0B3FD9F
:105130002046FFF7A6FF00B1D3E700BFD1E770B567
:105140000446A06A00B170BD94F83D0000F0010073
:1051500000B1F8E7256A03E0284608F079FC054627
:1051600035B14FF40041284602F052F90028F3D13E
:1051700005B9E8E7B4F91000002802DDB4F9100021
:1051800002E0B4F910004042BC4909680968897E10
:10519000884212DAB4F91200002802DDB4F91200D4
:1051A00002E0B4F912004042B44909680968897EF6
:1051B000884202DA002121876187218F208A0844F2
:1051C00001B22187618F608A084401B26187B4F916
:1051D0003800002802DDB4F9380002E0B4F93800E4
:1051E0004042A64909680968C97E88420FDCB4F9C3
:1051F0003A00002802DDB4F93A0002E0B4F93A00BE
:1052000040429E4909680968C97E88424ADD0121F9
:1052100084F83D10B4F93800002802DDB4F93800F4
:1052200002E0B4F938004042B4F93A10002902DD36
:10523000B4F93A1002E0B4F93A104942884213DD59
:10524000B4F93800002807DD94F83C0020F0F000A5
:10525000203084F83C001AE094F83C0020F0F00084
:10526000103084F83C0012E0B4F93A00002807DD61
:1052700094F83C0020F0F000803084F83C0006E018
:1052800094F83C0020F0F000403084F83C007B486B
:105290000C2102682846FFF7C4F82046FFF7F1FE0C
:1052A00000B150E700BF4EE770B5044604217248D4
:1052B000006802F0ADF820B16F49E06A09688842E1
:1052C00000D170BD6C48006802F0C6F80546E06A7F
:1052D00018B1E06A02F0C0F800E000200646B542CE
:1052E00024D14DB164480068FFF73AFD2046FFF72E
:1052F000C8FE002857D0E4E7E06A50B15F49E06A91
:105300000A680F21FFF78DF82046FFF7BAFE00B1BB
:10531000D7E75A480E21026857480068FFF781F81E
:105320002046FFF7AEFE00283DD0CAE766B9E06A26
:1053300050B15249E06A0A680F21FFF772F820461F
:10534000FFF79FFEC8B1BCE7E06AB0B156B94B4960
:10535000E06A0A680F21FFF764F82046FFF791FE24
:1053600058B1AEE74549E06A0A681021FFF759F8DD
:105370002046FFF786FE00B1A3E745B13E4800682E
:10538000FFF7EEFC2046FFF77CFE60B199E73B4853
:105390000E21026838480068FFF743F82046FFF7FF
:1053A00070FE00B18DE734480168E16200BF88E714
:1053B0002DE9F0470446884600260121204602F0E8
:1053C00027F810B10020BDE8F0874146204605F0DF
:1053D0006AF907460022414604F1140022F0F7F969
:1053E00028B94FF40021204602F012F8B0B120464F
:1053F00008F024FB8146A9F101050CE0A0680068D3
:1054000050F825A041465046FFF7D2FF06460EB1A0
:105410003046D8E76D1E002DF0DA00BF0FB12046F0
:10542000D1E70020CFE72DE9F041044600BF00BFDF
:105430001149206A08606078C0F3C00008B1BDE877
:10544000F0810E4800680068056900260A48006877
:1054500040BB2846FEF708FC0746211DFFF7A8FFC2
:10546000054908600846006870B92846FEF7EFFB5A
:105470000746211D04E000007C0000207800002089
:10548000FFF796FFF8490860F748006840B92846DA
:10549000FEF798FB0746211DFFF78AFFF2490860D7
:1054A00001262AE0A06A40BB4FF40051EE48006894
:1054B00001F0AEFF08BB2846FEF7D6FB0746211DCC
:1054C000FFF776FFE84908600846006840B92846BB
:1054D000FEF7BDFB0746211DFFF76AFFE2490860A2
:1054E000E148006840B92846FEF76CFB0746211DDD
:1054F000FFF75EFFDC490860012666B1606A50B1C3
:10550000002121836183204601F0C5FB2046FFF77F
:10551000B8FD00B193E7D449206A0968884254D0A5
:10552000A1882181E1886181206A60B1276ACF4822
:10553000032102683846FEF774FF2046FFF7A1FDFD
:1055400000B17CE700BFC848016821620168616260
:105550000068002839D021F00AFD2064607820F02E
:10556000010060700021A182E18294F83C0020F0EB
:105570000F0184F83C1094F83C0020F0F00184F80E
:105580003C10002184F83D102187618721826182CF
:10559000B64801210268B4480068FEF742FF204681
:1055A000FFF76FFD00B14AE7B04800684079C0F3EB
:1055B000C00000B143E7AD480068001DFFF774FE6E
:1055C0002046FFF75EFD00B139E7A1882089081A5F
:1055D00001B22182E1886089081A01B26182B4F9BE
:1055E000180040F35C002083B4F91A0040F35C011A
:1055F0006183218BB4F91000800001EBE00001B25F
:105600002183618BB4F91200800001EBE00001B24C
:105610006183A169E16194480068002863D09348E0
:105620000221026890480068FEF7FBFE2046FFF763
:1056300028FD00B103E78D4800684079C0F3C00041
:1056400000B1FCE6204601F055FA2046FFF719FDAF
:1056500000B1F4E62046FFF772FD2046FFF711FD8A
:1056600000B1ECE6A06A00BB607800F00100E0B990
:10567000206C21F087FC7D4909680968898B884284
:1056800013D97A480521026877480068FEF7C9FEF9
:105690002046FFF7F6FC00B1D1E6607820F001006B
:1056A000401C607021F063FC6064A06AD8B9607827
:1056B00000F00100B8B1606C21F064FC6B4909682E
:1056C0000968C98B88420ED9684806210268664875
:1056D0000068FEF7A6FE2046FFF7D3FC00B1AEE659
:1056E00021F045FC606400BFA9E62DE9F0410446C5
:1056F0000D46606D18B900BF00BFBDE8F081606D58
:10570000A96830F92160606DA96800EB8100B0F9EB
:105710000270A87B56490978884206D0A87B0128E8
:1057200001D100BF01E000BF00BFA87B01280AD162
:10573000B4F90C00B04203D1B4F90E00B84202D063
:10574000201DFFF7AAFC201DFFF79BFC00B1D4E74A
:1057500026816781A87B012803D1201DFFF763FE06
:1057600002E0201DFFF799FC201DFFF78AFC00B125
:10577000C3E72189A1816189E18100BFBDE72DE9EE
:10578000F04704460D46A87B012805D16079C0F397
:10579000C00008B1BDE8F0876079C0F3C00058B11F
:1057A000607920F00801617100216164607920F066
:1057B0000101617100212172277AA97B2172696838
:1057C000E160D4F85080B8F1000F00D1E2E7404624
:1057D000FFF78EFA244908600846006800B9D9E747
:1057E000A87B08B10020A8814046FFF781FA1E4936
:1057F00008600846006800B9CCE7A87B01285AD1A8
:10580000002F58D100BF00BF21F0B1FB6064686871
:105810000A2820D11448006802F0B5FD28B91021EB
:105820001148006801F0F4FD08B1012000E00020FB
:1058300006464046FFF7E9FB00B95EB90B48012177
:10584000026809480068FEF7ECFD201DFFF719FC0F
:1058500000B19FE751E1686814280BD1A889401E68
:1058600000B2A88149E100007C00002078000020FF
:10587000800000206868132804D1A889401C00B269
:10588000A8813AE168681B2810D11B214046FFF728
:105890009BFBFA4820210268F9480068FEF7C1FD29
:1058A000201DFFF7EEFB0028D4D073E7404669685F
:1058B000FFF78AFB21E1A87B012870D1012FFCD1E1
:1058C000607900F00100B8BB606C21F05BFB2168DF
:1058D000898B884244D9607920F00100401C6071B6
:1058E00021F045FBA06468680A2833D1E4480068C9
:1058F00002F049FD28B91021E148006801F088FD57
:1059000008B1012000E000200646B6B14046FFF78E
:105910008CFB01281DD900BF00BF4046FFF775FB77
:1059200080F0010949464046FFF7EDF92021D448AF
:10593000006801F05DFD0CE012E0D048052102682E
:10594000CF480068FEF76DFD201DFFF79AFB00B100
:1059500020E700BF607920F00100401C6071CCE0BE
:10596000607900F0010000288BD0A06C21F00AFBC8
:105970002168C98B884284D921F0F9FAA06468684B
:105980000A280DD1BD4806210268BD480068FEF70F
:1059900048FD201DFFF775FB00288BD0FAE619E0C3
:1059A0006868142804D1A889401E00B2A881A4E028
:1059B0006868132804D1A889401C00B2A8819CE023
:1059C00040466968FFF700FB201DFFF75AFB0028DF
:1059D000C5D0DFE6A87B002870D1012F6ED100BFB3
:1059E00000BF68680A286BD1A548006802F0CBFCAC
:1059F00028B91021A248006801F00AFD08B1012071
:105A000000E0002006463EBB9C48082102689C48F6
:105A10000068FEF706FD201DFFF733FB00B1B9E675
:105A2000607900F0010030B994480421026894487C
:105A30000068FEF7F6FC201DFFF723FB00B1A9E686
:105A40008E48072102688E480068FEF7EAFC201D98
:105A5000FFF717FB88B39DE64046FFF7D6FA70B311
:105A6000607900F0010020B14046FFF7DEFA01281E
:105A70002CD882480821026881480068FEF7D1FCD2
:105A8000201DFFF7FEFA00B184E67C48042102687D
:105A90007B480068FEF7C5FC201DFFF7F2FA00B155
:105AA00078E676480721026875480068FEF7B9FC79
:105AB000201DFFF7E6FA20B16CE617E01DE00BE0D1
:105AC00015E00A214046FFF77FFA0FE020216C48DD
:105AD000006801F08DFC09E0607900F0010028B950
